{
  "contractName": "BRDCrowdsale",
  "abi": [
    {
      "constant": false,
      "inputs": [
        {
          "name": "_newMaxContribution",
          "type": "uint256"
        }
      ],
      "name": "setMaxContribution",
      "outputs": [],
      "payable": false,
      "stateMutability": "nonpayable",
      "type": "function"
    },
    {
      "constant": false,
      "inputs": [
        {
          "name": "_authorizer",
          "type": "address"
        }
      ],
      "name": "setAuthorizer",
      "outputs": [],
      "payable": false,
      "stateMutability": "nonpayable",
      "type": "function"
    },
    {
      "constant": true,
      "inputs": [],
      "name": "lockup",
      "outputs": [
        {
          "name": "",
          "type": "address"
        }
      ],
      "payable": false,
      "stateMutability": "view",
      "type": "function"
    },
    {
      "constant": false,
      "inputs": [
        {
          "name": "_lockup",
          "type": "address"
        }
      ],
      "name": "setLockup",
      "outputs": [],
      "payable": false,
      "stateMutability": "nonpayable",
      "type": "function"
    },
    {
      "constant": false,
      "inputs": [
        {
          "name": "_token",
          "type": "address"
        }
      ],
      "name": "setToken",
      "outputs": [],
      "payable": false,
      "stateMutability": "nonpayable",
      "type": "function"
    },
    {
      "constant": true,
      "inputs": [],
      "name": "rate",
      "outputs": [
        {
          "name": "",
          "type": "uint256"
        }
      ],
      "payable": false,
      "stateMutability": "view",
      "type": "function"
    },
    {
      "constant": true,
      "inputs": [],
      "name": "endTime",
      "outputs": [
        {
          "name": "",
          "type": "uint256"
        }
      ],
      "payable": false,
      "stateMutability": "view",
      "type": "function"
    },
    {
      "constant": true,
      "inputs": [],
      "name": "cap",
      "outputs": [
        {
          "name": "",
          "type": "uint256"
        }
      ],
      "payable": false,
      "stateMutability": "view",
      "type": "function"
    },
    {
      "constant": true,
      "inputs": [],
      "name": "weiRaised",
      "outputs": [
        {
          "name": "",
          "type": "uint256"
        }
      ],
      "payable": false,
      "stateMutability": "view",
      "type": "function"
    },
    {
      "constant": true,
      "inputs": [],
      "name": "hasStarted",
      "outputs": [
        {
          "name": "",
          "type": "bool"
        }
      ],
      "payable": false,
      "stateMutability": "view",
      "type": "function"
    },
    {
      "constant": false,
      "inputs": [],
      "name": "finalize",
      "outputs": [],
      "payable": false,
      "stateMutability": "nonpayable",
      "type": "function"
    },
    {
      "constant": true,
      "inputs": [],
      "name": "wallet",
      "outputs": [
        {
          "name": "",
          "type": "address"
        }
      ],
      "payable": false,
      "stateMutability": "view",
      "type": "function"
    },
    {
      "constant": true,
      "inputs": [],
      "name": "bonusRate",
      "outputs": [
        {
          "name": "",
          "type": "uint256"
        }
      ],
      "payable": false,
      "stateMutability": "view",
      "type": "function"
    },
    {
      "constant": true,
      "inputs": [],
      "name": "ownerRate",
      "outputs": [
        {
          "name": "",
          "type": "uint256"
        }
      ],
      "payable": false,
      "stateMutability": "view",
      "type": "function"
    },
    {
      "constant": true,
      "inputs": [],
      "name": "startTime",
      "outputs": [
        {
          "name": "",
          "type": "uint256"
        }
      ],
      "payable": false,
      "stateMutability": "view",
      "type": "function"
    },
    {
      "constant": true,
      "inputs": [],
      "name": "maxContribution",
      "outputs": [
        {
          "name": "",
          "type": "uint256"
        }
      ],
      "payable": false,
      "stateMutability": "view",
      "type": "function"
    },
    {
      "constant": true,
      "inputs": [],
      "name": "isFinalized",
      "outputs": [
        {
          "name": "",
          "type": "bool"
        }
      ],
      "payable": false,
      "stateMutability": "view",
      "type": "function"
    },
    {
      "constant": true,
      "inputs": [],
      "name": "owner",
      "outputs": [
        {
          "name": "",
          "type": "address"
        }
      ],
      "payable": false,
      "stateMutability": "view",
      "type": "function"
    },
    {
      "constant": true,
      "inputs": [],
      "name": "minContribution",
      "outputs": [
        {
          "name": "",
          "type": "uint256"
        }
      ],
      "payable": false,
      "stateMutability": "view",
      "type": "function"
    },
    {
      "constant": false,
      "inputs": [
        {
          "name": "_newEndTime",
          "type": "uint256"
        }
      ],
      "name": "setEndTime",
      "outputs": [],
      "payable": false,
      "stateMutability": "nonpayable",
      "type": "function"
    },
    {
      "constant": true,
      "inputs": [],
      "name": "authorizer",
      "outputs": [
        {
          "name": "",
          "type": "address"
        }
      ],
      "payable": false,
      "stateMutability": "view",
      "type": "function"
    },
    {
      "constant": false,
      "inputs": [
        {
          "name": "_beneficiary",
          "type": "address"
        },
        {
          "name": "_amount",
          "type": "uint256"
        }
      ],
      "name": "lockupTokens",
      "outputs": [],
      "payable": false,
      "stateMutability": "nonpayable",
      "type": "function"
    },
    {
      "constant": false,
      "inputs": [
        {
          "name": "_beneficiary",
          "type": "address"
        }
      ],
      "name": "buyTokens",
      "outputs": [],
      "payable": true,
      "stateMutability": "payable",
      "type": "function"
    },
    {
      "constant": true,
      "inputs": [],
      "name": "hasEnded",
      "outputs": [
        {
          "name": "",
          "type": "bool"
        }
      ],
      "payable": false,
      "stateMutability": "view",
      "type": "function"
    },
    {
      "constant": false,
      "inputs": [
        {
          "name": "newOwner",
          "type": "address"
        }
      ],
      "name": "transferOwnership",
      "outputs": [],
      "payable": false,
      "stateMutability": "nonpayable",
      "type": "function"
    },
    {
      "constant": false,
      "inputs": [],
      "name": "unlockTokens",
      "outputs": [
        {
          "name": "_didIssueRewards",
          "type": "bool"
        }
      ],
      "payable": false,
      "stateMutability": "nonpayable",
      "type": "function"
    },
    {
      "constant": true,
      "inputs": [],
      "name": "token",
      "outputs": [
        {
          "name": "",
          "type": "address"
        }
      ],
      "payable": false,
      "stateMutability": "view",
      "type": "function"
    },
    {
      "inputs": [
        {
          "name": "_cap",
          "type": "uint256"
        },
        {
          "name": "_minWei",
          "type": "uint256"
        },
        {
          "name": "_maxWei",
          "type": "uint256"
        },
        {
          "name": "_startTime",
          "type": "uint256"
        },
        {
          "name": "_endTime",
          "type": "uint256"
        },
        {
          "name": "_rate",
          "type": "uint256"
        },
        {
          "name": "_ownerRate",
          "type": "uint256"
        },
        {
          "name": "_bonusRate",
          "type": "uint256"
        },
        {
          "name": "_wallet",
          "type": "address"
        }
      ],
      "payable": false,
      "stateMutability": "nonpayable",
      "type": "constructor"
    },
    {
      "payable": true,
      "stateMutability": "payable",
      "type": "fallback"
    },
    {
      "anonymous": false,
      "inputs": [],
      "name": "Finalized",
      "type": "event"
    },
    {
      "anonymous": false,
      "inputs": [
        {
          "indexed": true,
          "name": "previousOwner",
          "type": "address"
        },
        {
          "indexed": true,
          "name": "newOwner",
          "type": "address"
        }
      ],
      "name": "OwnershipTransferred",
      "type": "event"
    },
    {
      "anonymous": false,
      "inputs": [
        {
          "indexed": true,
          "name": "purchaser",
          "type": "address"
        },
        {
          "indexed": true,
          "name": "beneficiary",
          "type": "address"
        },
        {
          "indexed": false,
          "name": "value",
          "type": "uint256"
        },
        {
          "indexed": false,
          "name": "amount",
          "type": "uint256"
        }
      ],
      "name": "TokenPurchase",
      "type": "event"
    }
  ],
  "bytecode": "0x60606040526000600660146101000a81548160ff02191690831515021790555034156200002b57600080fd5b6040516101208062001f5e8339810160405280805190602001909190805190602001909190805190602001909190805190602001909190805190602001909190805190602001909190805190602001909190805190602001909190805190602001909190505085858583428410151515620000a557600080fd5b838310151515620000b557600080fd5b600082111515620000c557600080fd5b600073ffffffffffffffffffffffffffffffffffffffff168173ffffffffffffffffffffffffffffffffffffffff16141515156200010257600080fd5b620001206200023c6401000000000262001cd6176401000000009004565b6000806101000a81548173ffffffffffffffffffffffffffffffffffffffff021916908373ffffffffffffffffffffffffffffffffffffffff16021790555083600181905550826002819055508160048190555080600360006101000a81548173ffffffffffffffffffffffffffffffffffffffff021916908373ffffffffffffffffffffffffffffffffffffffff1602179055505050505033600660006101000a81548173ffffffffffffffffffffffffffffffffffffffff021916908373ffffffffffffffffffffffffffffffffffffffff1602179055506000891115156200020a57600080fd5b88600781905550876008819055508660098190555082600a8190555081600b8190555050505050505050505062000244565b600080905090565b611d0a80620002546000396000f30060606040526004361061015f576000357c0100000000000000000000000000000000000000000000000000000000900463ffffffff16806303ed9d211461016a578063058a628f1461018d57806306490f47146101c65780630b745a011461021b578063144fa6d7146102545780632c4e722e1461028d5780633197cbb6146102b6578063355274ea146102df5780634042b66f1461030857806344691f7e146103315780634bb278f31461035e578063521eb273146103735780635af123f4146103c8578063688cdba8146103f157806378e979251461041a5780638d3d6576146104435780638d4e40831461046c5780638da5cb5b14610499578063aaffadf3146104ee578063ccb98ffc14610517578063d09edf311461053a578063eb3a88dc1461058f578063ec8ac4d8146105d1578063ecb70fb7146105ff578063f2fde38b1461062c578063f968f49314610665578063fc0c546a14610692575b610168336106e7565b005b341561017557600080fd5b61018b6004808035906020019091905050610817565b005b341561019857600080fd5b6101c4600480803573ffffffffffffffffffffffffffffffffffffffff1690602001909190505061087d565b005b34156101d157600080fd5b6101d9610931565b604051808273ffffffffffffffffffffffffffffffffffffffff1673ffffffffffffffffffffffffffffffffffffffff16815260200191505060405180910390f35b341561022657600080fd5b610252600480803573ffffffffffffffffffffffffffffffffffffffff16906020019091905050610957565b005b341561025f57600080fd5b61028b600480803573ffffffffffffffffffffffffffffffffffffffff16906020019091905050610a0b565b005b341561029857600080fd5b6102a0610abe565b6040518082815260200191505060405180910390f35b34156102c157600080fd5b6102c9610ac4565b6040518082815260200191505060405180910390f35b34156102ea57600080fd5b6102f2610aca565b6040518082815260200191505060405180910390f35b341561031357600080fd5b61031b610ad0565b6040518082815260200191505060405180910390f35b341561033c57600080fd5b610344610ad6565b604051808215151515815260200191505060405180910390f35b341561036957600080fd5b610371610ae2565b005b341561037e57600080fd5b610386610bbe565b604051808273ffffffffffffffffffffffffffffffffffffffff1673ffffffffffffffffffffffffffffffffffffffff16815260200191505060405180910390f35b34156103d357600080fd5b6103db610be4565b6040518082815260200191505060405180910390f35b34156103fc57600080fd5b610404610bea565b6040518082815260200191505060405180910390f35b341561042557600080fd5b61042d610bf0565b6040518082815260200191505060405180910390f35b341561044e57600080fd5b610456610bf6565b6040518082815260200191505060405180910390f35b341561047757600080fd5b61047f610bfc565b604051808215151515815260200191505060405180910390f35b34156104a457600080fd5b6104ac610c0f565b604051808273ffffffffffffffffffffffffffffffffffffffff1673ffffffffffffffffffffffffffffffffffffffff16815260200191505060405180910390f35b34156104f957600080fd5b610501610c35565b6040518082815260200191505060405180910390f35b341561052257600080fd5b6105386004808035906020019091905050610c3b565b005b341561054557600080fd5b61054d610ca1565b604051808273ffffffffffffffffffffffffffffffffffffffff1673ffffffffffffffffffffffffffffffffffffffff16815260200191505060405180910390f35b341561059a57600080fd5b6105cf600480803573ffffffffffffffffffffffffffffffffffffffff16906020019091908035906020019091905050610cc7565b005b6105fd600480803573ffffffffffffffffffffffffffffffffffffffff169060200190919050506106e7565b005b341561060a57600080fd5b610612611167565b604051808215151515815260200191505060405180910390f35b341561063757600080fd5b610663600480803573ffffffffffffffffffffffffffffffffffffffff1690602001909190505061118a565b005b341561067057600080fd5b6106786112e2565b604051808215151515815260200191505060405180910390f35b341561069d57600080fd5b6106a5611686565b604051808273ffffffffffffffffffffffffffffffffffffffff1673ffffffffffffffffffffffffffffffffffffffff16815260200191505060405180910390f35b60006106f2826116ab565b610707600a543461189490919063ffffffff16565b90506000809054906101000a900473ffffffffffffffffffffffffffffffffffffffff1673ffffffffffffffffffffffffffffffffffffffff166340c10f19600360009054906101000a900473ffffffffffffffffffffffffffffffffffffffff16836000604051602001526040518363ffffffff167c0100000000000000000000000000000000000000000000000000000000028152600401808373ffffffffffffffffffffffffffffffffffffffff1673ffffffffffffffffffffffffffffffffffffffff16815260200182815260200192505050602060405180830381600087803b15156107f757600080fd5b6102c65a03f1151561080857600080fd5b50505060405180519050505050565b600660009054906101000a900473ffffffffffffffffffffffffffffffffffffffff1673ffffffffffffffffffffffffffffffffffffffff163373ffffffffffffffffffffffffffffffffffffffff1614151561087357600080fd5b8060098190555050565b600660009054906101000a900473ffffffffffffffffffffffffffffffffffffffff1673ffffffffffffffffffffffffffffffffffffffff163373ffffffffffffffffffffffffffffffffffffffff161415156108d957600080fd5b6108e1610ad6565b1515156108ed57600080fd5b80600c60006101000a81548173ffffffffffffffffffffffffffffffffffffffff021916908373ffffffffffffffffffffffffffffffffffffffff16021790555050565b600d60009054906101000a900473ffffffffffffffffffffffffffffffffffffffff1681565b600660009054906101000a900473ffffffffffffffffffffffffffffffffffffffff1673ffffffffffffffffffffffffffffffffffffffff163373ffffffffffffffffffffffffffffffffffffffff161415156109b357600080fd5b6109bb610ad6565b1515156109c757600080fd5b80600d60006101000a81548173ffffffffffffffffffffffffffffffffffffffff021916908373ffffffffffffffffffffffffffffffffffffffff16021790555050565b600660009054906101000a900473ffffffffffffffffffffffffffffffffffffffff1673ffffffffffffffffffffffffffffffffffffffff163373ffffffffffffffffffffffffffffffffffffffff16141515610a6757600080fd5b610a6f610ad6565b151515610a7b57600080fd5b806000806101000a81548173ffffffffffffffffffffffffffffffffffffffff021916908373ffffffffffffffffffffffffffffffffffffffff16021790555050565b60045481565b60025481565b60075481565b60055481565b60006001544211905090565b600660009054906101000a900473ffffffffffffffffffffffffffffffffffffffff1673ffffffffffffffffffffffffffffffffffffffff163373ffffffffffffffffffffffffffffffffffffffff16141515610b3e57600080fd5b600660149054906101000a900460ff16151515610b5a57600080fd5b610b62611167565b1515610b6d57600080fd5b610b756118cf565b7f6823b073d48d6e3a7d385eeb601452d680e74bb46afe3255a7d778f3a9b1768160405160405180910390a16001600660146101000a81548160ff021916908315150217905550565b600360009054906101000a900473ffffffffffffffffffffffffffffffffffffffff1681565b600b5481565b600a5481565b60015481565b60095481565b600660149054906101000a900460ff1681565b600660009054906101000a900473ffffffffffffffffffffffffffffffffffffffff1681565b60085481565b600660009054906101000a900473ffffffffffffffffffffffffffffffffffffffff1673ffffffffffffffffffffffffffffffffffffffff163373ffffffffffffffffffffffffffffffffffffffff16141515610c9757600080fd5b8060028190555050565b600c60009054906101000a900473ffffffffffffffffffffffffffffffffffffffff1681565b6000806000600660009054906101000a900473ffffffffffffffffffffffffffffffffffffffff1673ffffffffffffffffffffffffffffffffffffffff163373ffffffffffffffffffffffffffffffffffffffff16141515610d2857600080fd5b600660149054906101000a900460ff16151515610d4457600080fd5b610d6d600454610d5f86600a5461189490919063ffffffff16565b61198b90919063ffffffff16565b92506000809054906101000a900473ffffffffffffffffffffffffffffffffffffffff1673ffffffffffffffffffffffffffffffffffffffff166340c10f19600360009054906101000a900473ffffffffffffffffffffffffffffffffffffffff16856000604051602001526040518363ffffffff167c0100000000000000000000000000000000000000000000000000000000028152600401808373ffffffffffffffffffffffffffffffffffffffff1673ffffffffffffffffffffffffffffffffffffffff16815260200182815260200192505050602060405180830381600087803b1515610e5d57600080fd5b6102c65a03f11515610e6e57600080fd5b5050506040518051905050610ea16064610e9386600b5461189490919063ffffffff16565b61198b90919063ffffffff16565b9150600d60009054906101000a900473ffffffffffffffffffffffffffffffffffffffff1673ffffffffffffffffffffffffffffffffffffffff16636dc0a99786846040518363ffffffff167c0100000000000000000000000000000000000000000000000000000000028152600401808373ffffffffffffffffffffffffffffffffffffffff1673ffffffffffffffffffffffffffffffffffffffff16815260200182815260200192505050600060405180830381600087803b1515610f6757600080fd5b6102c65a03f11515610f7857600080fd5b5050506000809054906101000a900473ffffffffffffffffffffffffffffffffffffffff1673ffffffffffffffffffffffffffffffffffffffff166340c10f1930846000604051602001526040518363ffffffff167c0100000000000000000000000000000000000000000000000000000000028152600401808373ffffffffffffffffffffffffffffffffffffffff1673ffffffffffffffffffffffffffffffffffffffff16815260200182815260200192505050602060405180830381600087803b151561104757600080fd5b6102c65a03f1151561105857600080fd5b505050604051805190505061107682856119a690919063ffffffff16565b90506000809054906101000a900473ffffffffffffffffffffffffffffffffffffffff1673ffffffffffffffffffffffffffffffffffffffff166340c10f1986836000604051602001526040518363ffffffff167c0100000000000000000000000000000000000000000000000000000000028152600401808373ffffffffffffffffffffffffffffffffffffffff1673ffffffffffffffffffffffffffffffffffffffff16815260200182815260200192505050602060405180830381600087803b151561114457600080fd5b6102c65a03f1151561115557600080fd5b50505060405180519050505050505050565b6000806007546005541015905061117c6119bf565b806111845750805b91505090565b600660009054906101000a900473ffffffffffffffffffffffffffffffffffffffff1673ffffffffffffffffffffffffffffffffffffffff163373ffffffffffffffffffffffffffffffffffffffff161415156111e657600080fd5b600073ffffffffffffffffffffffffffffffffffffffff168173ffffffffffffffffffffffffffffffffffffffff161415151561122257600080fd5b8073ffffffffffffffffffffffffffffffffffffffff16600660009054906101000a900473ffffffffffffffffffffffffffffffffffffffff1673ffffffffffffffffffffffffffffffffffffffff167f8be0079c531659141344cd1fd0a4f28419497f9722a3daafe3b4186f6b6457e060405160405180910390a380600660006101000a81548173ffffffffffffffffffffffffffffffffffffffff021916908373ffffffffffffffffffffffffffffffffffffffff16021790555050565b600080600080600080600660009054906101000a900473ffffffffffffffffffffffffffffffffffffffff1673ffffffffffffffffffffffffffffffffffffffff163373ffffffffffffffffffffffffffffffffffffffff1614151561134757600080fd5b600d60009054906101000a900473ffffffffffffffffffffffffffffffffffffffff1673ffffffffffffffffffffffffffffffffffffffff1663f95e63066000604051602001526040518163ffffffff167c0100000000000000000000000000000000000000000000000000000000028152600401602060405180830381600087803b15156113d557600080fd5b6102c65a03f115156113e657600080fd5b5050506040518051905015156113ff576000955061167e565b600d60009054906101000a900473ffffffffffffffffffffffffffffffffffffffff1673ffffffffffffffffffffffffffffffffffffffff16633a2960e16000604051602001526040518163ffffffff167c0100000000000000000000000000000000000000000000000000000000028152600401602060405180830381600087803b151561148d57600080fd5b6102c65a03f1151561149e57600080fd5b505050604051805190509450600093505b8484101561167957600d60009054906101000a900473ffffffffffffffffffffffffffffffffffffffff1673ffffffffffffffffffffffffffffffffffffffff16636198e339856000604051606001526040518263ffffffff167c010000000000000000000000000000000000000000000000000000000002815260040180828152602001915050606060405180830381600087803b151561155057600080fd5b6102c65a03f1151561156157600080fd5b50505060405180519060200180519060200180519050925092509250821561166c576000809054906101000a900473ffffffffffffffffffffffffffffffffffffffff1673ffffffffffffffffffffffffffffffffffffffff1663a9059cbb83836000604051602001526040518363ffffffff167c0100000000000000000000000000000000000000000000000000000000028152600401808373ffffffffffffffffffffffffffffffffffffffff1673ffffffffffffffffffffffffffffffffffffffff16815260200182815260200192505050602060405180830381600087803b151561164f57600080fd5b6102c65a03f1151561166057600080fd5b50505060405180519050505b83806001019450506114af565b600195505b505050505090565b6000809054906101000a900473ffffffffffffffffffffffffffffffffffffffff1681565b600080600073ffffffffffffffffffffffffffffffffffffffff168373ffffffffffffffffffffffffffffffffffffffff16141515156116ea57600080fd5b6116f26119cb565b15156116fd57600080fd5b3491506117156004548361189490919063ffffffff16565b905061172c82600554611c1f90919063ffffffff16565b6005819055506000809054906101000a900473ffffffffffffffffffffffffffffffffffffffff1673ffffffffffffffffffffffffffffffffffffffff166340c10f1984836000604051602001526040518363ffffffff167c0100000000000000000000000000000000000000000000000000000000028152600401808373ffffffffffffffffffffffffffffffffffffffff1673ffffffffffffffffffffffffffffffffffffffff16815260200182815260200192505050602060405180830381600087803b15156117fe57600080fd5b6102c65a03f1151561180f57600080fd5b50505060405180519050508273ffffffffffffffffffffffffffffffffffffffff163373ffffffffffffffffffffffffffffffffffffffff167f623b3804fa71d67900d064613da8f94b9617215ee90799290593e1745087ad188484604051808381526020018281526020019250505060405180910390a361188f611c3d565b505050565b60008060008414156118a957600091506118c8565b82840290508284828115156118ba57fe5b041415156118c457fe5b8091505b5092915050565b6000809054906101000a900473ffffffffffffffffffffffffffffffffffffffff1673ffffffffffffffffffffffffffffffffffffffff16637d64bcb46000604051602001526040518163ffffffff167c0100000000000000000000000000000000000000000000000000000000028152600401602060405180830381600087803b151561195c57600080fd5b6102c65a03f1151561196d57600080fd5b50505060405180519050506119806112e2565b50611989611ca1565b565b600080828481151561199957fe5b0490508091505092915050565b60008282111515156119b457fe5b818303905092915050565b60006002544211905090565b6000806000806000806007546119ec34600554611c1f90919063ffffffff16565b11159450600c60009054906101000a900473ffffffffffffffffffffffffffffffffffffffff1673ffffffffffffffffffffffffffffffffffffffff1663fe9fbb80336000604051602001526040518263ffffffff167c0100000000000000000000000000000000000000000000000000000000028152600401808273ffffffffffffffffffffffffffffffffffffffff1673ffffffffffffffffffffffffffffffffffffffff168152602001915050602060405180830381600087803b1515611ab557600080fd5b6102c65a03f11515611ac657600080fd5b5050506040518051905093506008543410159250611bcd6004546000809054906101000a900473ffffffffffffffffffffffffffffffffffffffff1673ffffffffffffffffffffffffffffffffffffffff166370a08231336000604051602001526040518263ffffffff167c0100000000000000000000000000000000000000000000000000000000028152600401808273ffffffffffffffffffffffffffffffffffffffff1673ffffffffffffffffffffffffffffffffffffffff168152602001915050602060405180830381600087803b1515611ba457600080fd5b6102c65a03f11515611bb557600080fd5b5050506040518051905061198b90919063ffffffff16565b9150600954611be58334611c1f90919063ffffffff16565b11159050611bf1611ca3565b8015611bfa5750845b8015611c035750835b8015611c0c5750825b8015611c155750805b9550505050505090565b6000808284019050838110151515611c3357fe5b8091505092915050565b600360009054906101000a900473ffffffffffffffffffffffffffffffffffffffff1673ffffffffffffffffffffffffffffffffffffffff166108fc349081150290604051600060405180830381858888f193505050501515611c9f57600080fd5b565b565b60008060006001544210158015611cbc57506002544211155b915060003414159050818015611ccf5750805b9250505090565b6000809050905600a165627a7a7230582068d19f155a93b85e9e2151345e7171535dfad596b6a44cc439c5fb02e58f5a5c0029",
  "source": "pragma solidity ^0.4.18;\n\nimport \"./BRDToken.sol\";\nimport \"./BRDCrowdsaleAuthorizer.sol\";\nimport \"./BRDLockup.sol\";\nimport \"./zeppelin-solidity-1.4/Crowdsale.sol\";\nimport \"./zeppelin-solidity-1.4/FinalizableCrowdsale.sol\";\nimport \"./zeppelin-solidity-1.4/MintableToken.sol\";\nimport \"./zeppelin-solidity-1.4/SafeMath.sol\";\n\n\ncontract BRDCrowdsale is FinalizableCrowdsale {\n  using SafeMath for uint256;\n\n  // maximum amount of wei raised during this crowdsale\n  uint256 public cap;\n\n  // minimum per-participant wei contribution\n  uint256 public minContribution;\n\n  // maximum per-participant wei contribution\n  uint256 public maxContribution;\n\n  // how many token unites the owner gets per buyer wei\n  uint256 public ownerRate;\n\n  // number of tokens per 100 to lock up in lockupTokens()\n  uint256 public bonusRate;\n\n  // crowdsale authorizer contract determines who can participate\n  BRDCrowdsaleAuthorizer public authorizer;\n\n  // the lockup contract holds presale authorization amounts\n  BRDLockup public lockup;\n\n  // constructor\n  function BRDCrowdsale(\n    uint256 _cap,         // maximum wei raised\n    uint256 _minWei,      // minimum per-contributor wei\n    uint256 _maxWei,      // maximum per-contributor wei\n    uint256 _startTime,   // crowdsale start time\n    uint256 _endTime,     // crowdsale end time\n    uint256 _rate,        // tokens per wei\n    uint256 _ownerRate,   // owner tokens per buyer wei\n    uint256 _bonusRate,   // percentage of tokens to lockup\n    address _wallet)      // target funds wallet\n    Crowdsale(_startTime, _endTime, _rate, _wallet)\n   public\n  {\n    require(_cap > 0);\n    cap = _cap;\n    minContribution = _minWei;\n    maxContribution = _maxWei;\n    ownerRate = _ownerRate;\n    bonusRate = _bonusRate;\n  }\n\n  // overriding Crowdsale#hasEnded to add cap logic\n  // @return true if crowdsale event has ended\n  function hasEnded() public constant returns (bool) {\n    bool _capReached = weiRaised >= cap;\n    return super.hasEnded() || _capReached;\n  }\n\n  // @return true if the crowdsale has started\n  function hasStarted() public constant returns (bool) {\n    return now > startTime;\n  }\n\n  // overriding Crowdsale#buyTokens\n  // mints the ownerRate of tokens in addition to calling the super method\n  function buyTokens(address _beneficiary) public payable {\n    // call the parent method to mint tokens to the beneficiary\n    super.buyTokens(_beneficiary);\n    // calculate the owner share of tokens\n    uint256 _ownerTokens = msg.value.mul(ownerRate);\n    // mint the owner share and send to the owner wallet\n    token.mint(wallet, _ownerTokens);\n  }\n\n  // mints _amount tokens to the _beneficiary minus the bonusRate\n  // tokens to be locked up via the lockup contract. locked up tokens\n  // are sent to the contract and may be unlocked according to\n  // the lockup configuration after the sale ends\n  function lockupTokens(address _beneficiary, uint256 _amount) onlyOwner  public {\n    require(!isFinalized);\n\n    // calculate the owner share of tokens\n    uint256 _ownerTokens = ownerRate.mul(_amount).div(rate);\n    // mint the owner share and send to the owner wallet\n    token.mint(wallet, _ownerTokens);\n\n    // calculate the amount of tokens to be locked up\n    uint256 _lockupTokens = bonusRate.mul(_amount).div(100);\n    // create the locked allocation in the lockup contract\n    lockup.pushAllocation(_beneficiary, _lockupTokens);\n    // mint locked tokens to the crowdsale contract to later be unlocked\n    token.mint(this, _lockupTokens);\n\n    // the non-bonus tokens are immediately rewarded\n    uint256 _remainder = _amount.sub(_lockupTokens);\n    token.mint(_beneficiary, _remainder);\n  }\n\n  // unlocks tokens from the token lockup contract. no tokens are held by\n  // the lockup contract, just the amounts and times that tokens should be rewarded.\n  // the tokens are held by the crowdsale contract\n  function unlockTokens() onlyOwner public returns (bool _didIssueRewards) {\n    // attempt to process the interval. it update the allocation bookkeeping\n    // and will only return true when the interval should be processed\n    if (!lockup.processInterval())\n      return false;\n\n    // the total number of allocations\n    uint _numAllocations = lockup.numAllocations();\n\n    // for every allocation, attempt to unlock the reward\n    for (uint _i = 0; _i < _numAllocations; _i++) {\n      // attempt to unlock the reward\n      var (_shouldReward, _to, _amount) = lockup.unlock(_i);\n      // if the beneficiary should be rewarded, send them tokens\n      if (_shouldReward) {\n        token.transfer(_to, _amount);\n      }\n    }\n\n    return true;\n  }\n\n  // sets the authorizer contract if the crowdsale hasn't started\n  function setAuthorizer(BRDCrowdsaleAuthorizer _authorizer) onlyOwner public {\n    require(!hasStarted());\n    authorizer = _authorizer;\n  }\n\n  // sets the lockup contract if the crowdsale hasn't started\n  function setLockup(BRDLockup _lockup) onlyOwner public {\n    require(!hasStarted());\n    lockup = _lockup;\n  }\n\n  // sets the token contract if the crowdsale hasn't started\n  function setToken(BRDToken _token) onlyOwner public {\n    require(!hasStarted());\n    token = _token;\n  }\n\n  // allows maxContribution to be modified\n  function setMaxContribution(uint256 _newMaxContribution) onlyOwner public {\n    maxContribution = _newMaxContribution;\n  }\n\n  // allows endTime to be modified\n  function setEndTime(uint256 _newEndTime) onlyOwner public {\n    endTime = _newEndTime;\n  }\n\n  // overriding Crowdsale#createTokenContract\n  function createTokenContract() internal returns (MintableToken) {\n    // set the token to null initially\n    // call setToken() above to set the actual token address\n    return BRDToken(address(0));\n  }\n\n  // overriding FinalizableCrowdsale#finalization\n  // finalizes minting for the token contract, disabling further minting\n  function finalization() internal {\n    // end minting\n    token.finishMinting();\n\n    // issue the first lockup reward\n    unlockTokens();\n\n    super.finalization();\n  }\n\n  // overriding Crowdsale#validPurchase to add extra cap logic\n  // @return true if crowdsale participants can buy at the moment\n  // checks whether the cap has not been reached, the purchaser has\n  // been authorized, and their contribution is within the min/max\n  // thresholds\n  function validPurchase() internal constant returns (bool) {\n    bool _withinCap = weiRaised.add(msg.value) <= cap;\n    bool _isAuthorized = authorizer.isAuthorized(msg.sender);\n    bool _isMin = msg.value >= minContribution;\n    uint256 _alreadyContributed = token.balanceOf(msg.sender).div(rate);\n    bool _withinMax = msg.value.add(_alreadyContributed) <= maxContribution;\n    return super.validPurchase() && _withinCap && _isAuthorized && _isMin && _withinMax;\n  }\n}\n",
  "sourcePath": "/Users/sam/dev/bread/smart-contracts/contracts/BRDCrowdsale.sol",
  "compiler": {
    "name": "solc",
    "version": "0.4.18+commit.9cf6e910.Emscripten.clang"
  },
  "schemaVersion": "1.0.1",
  "updatedAt": "2017-12-13T05:26:58.746Z"
}