{
  "contractName": "BRDCrowdsaleAuthorizer",
  "abi": [
    {
      "constant": true,
      "inputs": [
        {
          "name": "_account",
          "type": "address"
        }
      ],
      "name": "isAuthorizer",
      "outputs": [
        {
          "name": "_isAuthorizer",
          "type": "bool"
        }
      ],
      "payable": false,
      "stateMutability": "view",
      "type": "function"
    },
    {
      "constant": false,
      "inputs": [
        {
          "name": "_newAuthorizer",
          "type": "address"
        }
      ],
      "name": "addAuthorizer",
      "outputs": [],
      "payable": false,
      "stateMutability": "nonpayable",
      "type": "function"
    },
    {
      "constant": false,
      "inputs": [
        {
          "name": "_bannedAuthorizer",
          "type": "address"
        }
      ],
      "name": "removeAuthorizer",
      "outputs": [],
      "payable": false,
      "stateMutability": "nonpayable",
      "type": "function"
    },
    {
      "constant": true,
      "inputs": [],
      "name": "owner",
      "outputs": [
        {
          "name": "",
          "type": "address"
        }
      ],
      "payable": false,
      "stateMutability": "view",
      "type": "function"
    },
    {
      "constant": false,
      "inputs": [
        {
          "name": "_newAccount",
          "type": "address"
        }
      ],
      "name": "authorizeAccount",
      "outputs": [],
      "payable": false,
      "stateMutability": "nonpayable",
      "type": "function"
    },
    {
      "constant": false,
      "inputs": [
        {
          "name": "newOwner",
          "type": "address"
        }
      ],
      "name": "transferOwnership",
      "outputs": [],
      "payable": false,
      "stateMutability": "nonpayable",
      "type": "function"
    },
    {
      "constant": true,
      "inputs": [
        {
          "name": "_account",
          "type": "address"
        }
      ],
      "name": "isAuthorized",
      "outputs": [
        {
          "name": "_authorized",
          "type": "bool"
        }
      ],
      "payable": false,
      "stateMutability": "view",
      "type": "function"
    },
    {
      "anonymous": false,
      "inputs": [
        {
          "indexed": true,
          "name": "_to",
          "type": "address"
        }
      ],
      "name": "Authorized",
      "type": "event"
    },
    {
      "anonymous": false,
      "inputs": [
        {
          "indexed": true,
          "name": "previousOwner",
          "type": "address"
        },
        {
          "indexed": true,
          "name": "newOwner",
          "type": "address"
        }
      ],
      "name": "OwnershipTransferred",
      "type": "event"
    }
  ],
  "bytecode": "0x6060604052336000806101000a81548173ffffffffffffffffffffffffffffffffffffffff021916908373ffffffffffffffffffffffffffffffffffffffff16021790555061091d806100536000396000f300606060405260043610610083576000357c0100000000000000000000000000000000000000000000000000000000900463ffffffff16806346e7ccac146100885780634a4666c1146100d95780638b69759d146101125780638da5cb5b1461014b578063a9a8679b146101a0578063f2fde38b146101d9578063fe9fbb8014610212575b600080fd5b341561009357600080fd5b6100bf600480803573ffffffffffffffffffffffffffffffffffffffff16906020019091905050610263565b604051808215151515815260200191505060405180910390f35b34156100e457600080fd5b610110600480803573ffffffffffffffffffffffffffffffffffffffff16906020019091905050610317565b005b341561011d57600080fd5b610149600480803573ffffffffffffffffffffffffffffffffffffffff16906020019091905050610421565b005b341561015657600080fd5b61015e61057a565b604051808273ffffffffffffffffffffffffffffffffffffffff1673ffffffffffffffffffffffffffffffffffffffff16815260200191505060405180910390f35b34156101ab57600080fd5b6101d7600480803573ffffffffffffffffffffffffffffffffffffffff1690602001909190505061059f565b005b34156101e457600080fd5b610210600480803573ffffffffffffffffffffffffffffffffffffffff1690602001909190505061073f565b005b341561021d57600080fd5b610249600480803573ffffffffffffffffffffffffffffffffffffffff16906020019091905050610894565b604051808215151515815260200191505060405180910390f35b60008060009054906101000a900473ffffffffffffffffffffffffffffffffffffffff1673ffffffffffffffffffffffffffffffffffffffff163373ffffffffffffffffffffffffffffffffffffffff161480610310575060011515600260008473ffffffffffffffffffffffffffffffffffffffff1673ffffffffffffffffffffffffffffffffffffffff16815260200190815260200160002060009054906101000a900460ff161515145b9050919050565b6000809054906101000a900473ffffffffffffffffffffffffffffffffffffffff1673ffffffffffffffffffffffffffffffffffffffff163373ffffffffffffffffffffffffffffffffffffffff1614806103bb5750600260003373ffffffffffffffffffffffffffffffffffffffff1673ffffffffffffffffffffffffffffffffffffffff16815260200190815260200160002060009054906101000a900460ff165b15156103c657600080fd5b6001600260008373ffffffffffffffffffffffffffffffffffffffff1673ffffffffffffffffffffffffffffffffffffffff16815260200190815260200160002060006101000a81548160ff02191690831515021790555050565b6000809054906101000a900473ffffffffffffffffffffffffffffffffffffffff1673ffffffffffffffffffffffffffffffffffffffff163373ffffffffffffffffffffffffffffffffffffffff1614806104c55750600260003373ffffffffffffffffffffffffffffffffffffffff1673ffffffffffffffffffffffffffffffffffffffff16815260200190815260200160002060009054906101000a900460ff165b15156104d057600080fd5b600260008273ffffffffffffffffffffffffffffffffffffffff1673ffffffffffffffffffffffffffffffffffffffff16815260200190815260200160002060009054906101000a900460ff16151561052857600080fd5b600260008273ffffffffffffffffffffffffffffffffffffffff1673ffffffffffffffffffffffffffffffffffffffff16815260200190815260200160002060006101000a81549060ff021916905550565b6000809054906101000a900473ffffffffffffffffffffffffffffffffffffffff1681565b6000809054906101000a900473ffffffffffffffffffffffffffffffffffffffff1673ffffffffffffffffffffffffffffffffffffffff163373ffffffffffffffffffffffffffffffffffffffff1614806106435750600260003373ffffffffffffffffffffffffffffffffffffffff1673ffffffffffffffffffffffffffffffffffffffff16815260200190815260200160002060009054906101000a900460ff165b151561064e57600080fd5b600160008273ffffffffffffffffffffffffffffffffffffffff1673ffffffffffffffffffffffffffffffffffffffff16815260200190815260200160002060009054906101000a900460ff16151561073c5760018060008373ffffffffffffffffffffffffffffffffffffffff1673ffffffffffffffffffffffffffffffffffffffff16815260200190815260200160002060006101000a81548160ff0219169083151502179055508073ffffffffffffffffffffffffffffffffffffffff167fdc84e3a4c83602050e3865df792a4e6800211a79ac60db94e703a820ce89292460405160405180910390a25b50565b6000809054906101000a900473ffffffffffffffffffffffffffffffffffffffff1673ffffffffffffffffffffffffffffffffffffffff163373ffffffffffffffffffffffffffffffffffffffff1614151561079a57600080fd5b600073ffffffffffffffffffffffffffffffffffffffff168173ffffffffffffffffffffffffffffffffffffffff16141515156107d657600080fd5b8073ffffffffffffffffffffffffffffffffffffffff166000809054906101000a900473ffffffffffffffffffffffffffffffffffffffff1673ffffffffffffffffffffffffffffffffffffffff167f8be0079c531659141344cd1fd0a4f28419497f9722a3daafe3b4186f6b6457e060405160405180910390a3806000806101000a81548173ffffffffffffffffffffffffffffffffffffffff021916908373ffffffffffffffffffffffffffffffffffffffff16021790555050565b600060011515600160008473ffffffffffffffffffffffffffffffffffffffff1673ffffffffffffffffffffffffffffffffffffffff16815260200190815260200160002060009054906101000a900460ff1615151490509190505600a165627a7a723058207bf2c31c97fdc94c3844022ea03868a49da87172ee6493a5db5132674ff28e4e0029",
  "source": "pragma solidity ^0.4.18;\n\nimport \"./zeppelin-solidity-1.4/Ownable.sol\";\n\n\n/**\n * Contract BRDCrowdsaleAuthorizer is used by the crowdsale website\n * to autorize wallets to participate in the crowdsale. Because all\n * participants must go through the KYC/AML phase, only accounts\n * listed in this contract may contribute to the crowdsale\n */\ncontract BRDCrowdsaleAuthorizer is Ownable {\n  // these accounts are authorized to participate in the crowdsale\n  mapping (address => bool) internal authorizedAccounts;\n  // these accounts are authorized to authorize accounts\n  mapping (address => bool) internal authorizers;\n\n  // emitted when a new account is authorized\n  event Authorized(address indexed _to);\n\n  // add an authorizer to the authorizers mapping. the _newAuthorizer will\n  // be able to add other authorizers and authorize crowdsale participants\n  function addAuthorizer(address _newAuthorizer) onlyOwnerOrAuthorizer public {\n    // allow the provided address to authorize accounts\n    authorizers[_newAuthorizer] = true;\n  }\n\n  // remove an authorizer from the authorizers mapping. the _bannedAuthorizer will\n  // no longer have permission to do anything on this contract\n  function removeAuthorizer(address _bannedAuthorizer) onlyOwnerOrAuthorizer public {\n    // only attempt to remove the authorizer if they are currently authorized\n    require(authorizers[_bannedAuthorizer]);\n    // remove the authorizer\n    delete authorizers[_bannedAuthorizer];\n  }\n\n  // allow an account to participate in the crowdsale\n  function authorizeAccount(address _newAccount) onlyOwnerOrAuthorizer public {\n    if (!authorizedAccounts[_newAccount]) {\n      // allow the provided account to participate in the crowdsale\n      authorizedAccounts[_newAccount] = true;\n      // emit the Authorized event\n      Authorized(_newAccount);\n    }\n  }\n\n  // returns whether or not the provided _account is an authorizer\n  function isAuthorizer(address _account) constant public returns (bool _isAuthorizer) {\n    return msg.sender == owner || authorizers[_account] == true;\n  }\n\n  // returns whether or not the provided _account is authorized to participate in the crowdsale\n  function isAuthorized(address _account) constant public returns (bool _authorized) {\n    return authorizedAccounts[_account] == true;\n  }\n\n  // allow only the contract creator or one of the authorizers to do this\n  modifier onlyOwnerOrAuthorizer() {\n    require(msg.sender == owner || authorizers[msg.sender]);\n    _;\n  }\n}\n",
  "sourcePath": "/Users/sam/dev/bread/smart-contracts/contracts/BRDCrowdsaleAuthorizer.sol",
  "compiler": {
    "name": "solc",
    "version": "0.4.18+commit.9cf6e910.Emscripten.clang"
  },
  "schemaVersion": "1.0.1",
  "updatedAt": "2017-12-18T20:28:15.087Z"
}