{
  "contractName": "BRDCrowdsale",
  "abi": [
    {
      "constant": false,
      "inputs": [
        {
          "name": "_newMaxContribution",
          "type": "uint256"
        }
      ],
      "name": "setMaxContribution",
      "outputs": [],
      "payable": false,
      "stateMutability": "nonpayable",
      "type": "function"
    },
    {
      "constant": false,
      "inputs": [
        {
          "name": "_authorizer",
          "type": "address"
        }
      ],
      "name": "setAuthorizer",
      "outputs": [],
      "payable": false,
      "stateMutability": "nonpayable",
      "type": "function"
    },
    {
      "constant": true,
      "inputs": [],
      "name": "lockup",
      "outputs": [
        {
          "name": "",
          "type": "address"
        }
      ],
      "payable": false,
      "stateMutability": "view",
      "type": "function"
    },
    {
      "constant": false,
      "inputs": [
        {
          "name": "_lockup",
          "type": "address"
        }
      ],
      "name": "setLockup",
      "outputs": [],
      "payable": false,
      "stateMutability": "nonpayable",
      "type": "function"
    },
    {
      "constant": false,
      "inputs": [
        {
          "name": "_token",
          "type": "address"
        }
      ],
      "name": "setToken",
      "outputs": [],
      "payable": false,
      "stateMutability": "nonpayable",
      "type": "function"
    },
    {
      "constant": true,
      "inputs": [],
      "name": "rate",
      "outputs": [
        {
          "name": "",
          "type": "uint256"
        }
      ],
      "payable": false,
      "stateMutability": "view",
      "type": "function"
    },
    {
      "constant": true,
      "inputs": [],
      "name": "endTime",
      "outputs": [
        {
          "name": "",
          "type": "uint256"
        }
      ],
      "payable": false,
      "stateMutability": "view",
      "type": "function"
    },
    {
      "constant": true,
      "inputs": [],
      "name": "cap",
      "outputs": [
        {
          "name": "",
          "type": "uint256"
        }
      ],
      "payable": false,
      "stateMutability": "view",
      "type": "function"
    },
    {
      "constant": true,
      "inputs": [],
      "name": "weiRaised",
      "outputs": [
        {
          "name": "",
          "type": "uint256"
        }
      ],
      "payable": false,
      "stateMutability": "view",
      "type": "function"
    },
    {
      "constant": true,
      "inputs": [],
      "name": "hasStarted",
      "outputs": [
        {
          "name": "",
          "type": "bool"
        }
      ],
      "payable": false,
      "stateMutability": "view",
      "type": "function"
    },
    {
      "constant": false,
      "inputs": [
        {
          "name": "_newCap",
          "type": "uint256"
        }
      ],
      "name": "setCap",
      "outputs": [],
      "payable": false,
      "stateMutability": "nonpayable",
      "type": "function"
    },
    {
      "constant": false,
      "inputs": [],
      "name": "finalize",
      "outputs": [],
      "payable": false,
      "stateMutability": "nonpayable",
      "type": "function"
    },
    {
      "constant": true,
      "inputs": [],
      "name": "wallet",
      "outputs": [
        {
          "name": "",
          "type": "address"
        }
      ],
      "payable": false,
      "stateMutability": "view",
      "type": "function"
    },
    {
      "constant": true,
      "inputs": [],
      "name": "bonusRate",
      "outputs": [
        {
          "name": "",
          "type": "uint256"
        }
      ],
      "payable": false,
      "stateMutability": "view",
      "type": "function"
    },
    {
      "constant": true,
      "inputs": [],
      "name": "ownerRate",
      "outputs": [
        {
          "name": "",
          "type": "uint256"
        }
      ],
      "payable": false,
      "stateMutability": "view",
      "type": "function"
    },
    {
      "constant": true,
      "inputs": [],
      "name": "startTime",
      "outputs": [
        {
          "name": "",
          "type": "uint256"
        }
      ],
      "payable": false,
      "stateMutability": "view",
      "type": "function"
    },
    {
      "constant": false,
      "inputs": [
        {
          "name": "_beneficiary",
          "type": "address"
        },
        {
          "name": "_amount",
          "type": "uint256"
        }
      ],
      "name": "allocateTokens",
      "outputs": [],
      "payable": false,
      "stateMutability": "nonpayable",
      "type": "function"
    },
    {
      "constant": true,
      "inputs": [],
      "name": "maxContribution",
      "outputs": [
        {
          "name": "",
          "type": "uint256"
        }
      ],
      "payable": false,
      "stateMutability": "view",
      "type": "function"
    },
    {
      "constant": true,
      "inputs": [],
      "name": "isFinalized",
      "outputs": [
        {
          "name": "",
          "type": "bool"
        }
      ],
      "payable": false,
      "stateMutability": "view",
      "type": "function"
    },
    {
      "constant": true,
      "inputs": [],
      "name": "owner",
      "outputs": [
        {
          "name": "",
          "type": "address"
        }
      ],
      "payable": false,
      "stateMutability": "view",
      "type": "function"
    },
    {
      "constant": true,
      "inputs": [],
      "name": "minContribution",
      "outputs": [
        {
          "name": "",
          "type": "uint256"
        }
      ],
      "payable": false,
      "stateMutability": "view",
      "type": "function"
    },
    {
      "constant": true,
      "inputs": [],
      "name": "tokenWallet",
      "outputs": [
        {
          "name": "",
          "type": "address"
        }
      ],
      "payable": false,
      "stateMutability": "view",
      "type": "function"
    },
    {
      "constant": false,
      "inputs": [
        {
          "name": "_newEndTime",
          "type": "uint256"
        }
      ],
      "name": "setEndTime",
      "outputs": [],
      "payable": false,
      "stateMutability": "nonpayable",
      "type": "function"
    },
    {
      "constant": true,
      "inputs": [],
      "name": "authorizer",
      "outputs": [
        {
          "name": "",
          "type": "address"
        }
      ],
      "payable": false,
      "stateMutability": "view",
      "type": "function"
    },
    {
      "constant": false,
      "inputs": [
        {
          "name": "_beneficiary",
          "type": "address"
        },
        {
          "name": "_amount",
          "type": "uint256"
        }
      ],
      "name": "lockupTokens",
      "outputs": [],
      "payable": false,
      "stateMutability": "nonpayable",
      "type": "function"
    },
    {
      "constant": false,
      "inputs": [
        {
          "name": "_beneficiary",
          "type": "address"
        }
      ],
      "name": "buyTokens",
      "outputs": [],
      "payable": true,
      "stateMutability": "payable",
      "type": "function"
    },
    {
      "constant": true,
      "inputs": [],
      "name": "hasEnded",
      "outputs": [
        {
          "name": "",
          "type": "bool"
        }
      ],
      "payable": false,
      "stateMutability": "view",
      "type": "function"
    },
    {
      "constant": false,
      "inputs": [
        {
          "name": "newOwner",
          "type": "address"
        }
      ],
      "name": "transferOwnership",
      "outputs": [],
      "payable": false,
      "stateMutability": "nonpayable",
      "type": "function"
    },
    {
      "constant": false,
      "inputs": [],
      "name": "unlockTokens",
      "outputs": [
        {
          "name": "_didIssueRewards",
          "type": "bool"
        }
      ],
      "payable": false,
      "stateMutability": "nonpayable",
      "type": "function"
    },
    {
      "constant": true,
      "inputs": [],
      "name": "token",
      "outputs": [
        {
          "name": "",
          "type": "address"
        }
      ],
      "payable": false,
      "stateMutability": "view",
      "type": "function"
    },
    {
      "inputs": [
        {
          "name": "_cap",
          "type": "uint256"
        },
        {
          "name": "_minWei",
          "type": "uint256"
        },
        {
          "name": "_maxWei",
          "type": "uint256"
        },
        {
          "name": "_startTime",
          "type": "uint256"
        },
        {
          "name": "_endTime",
          "type": "uint256"
        },
        {
          "name": "_rate",
          "type": "uint256"
        },
        {
          "name": "_ownerRate",
          "type": "uint256"
        },
        {
          "name": "_bonusRate",
          "type": "uint256"
        },
        {
          "name": "_wallet",
          "type": "address"
        },
        {
          "name": "_tokenWallet",
          "type": "address"
        }
      ],
      "payable": false,
      "stateMutability": "nonpayable",
      "type": "constructor"
    },
    {
      "payable": true,
      "stateMutability": "payable",
      "type": "fallback"
    },
    {
      "anonymous": false,
      "inputs": [],
      "name": "Finalized",
      "type": "event"
    },
    {
      "anonymous": false,
      "inputs": [
        {
          "indexed": true,
          "name": "previousOwner",
          "type": "address"
        },
        {
          "indexed": true,
          "name": "newOwner",
          "type": "address"
        }
      ],
      "name": "OwnershipTransferred",
      "type": "event"
    },
    {
      "anonymous": false,
      "inputs": [
        {
          "indexed": true,
          "name": "purchaser",
          "type": "address"
        },
        {
          "indexed": true,
          "name": "beneficiary",
          "type": "address"
        },
        {
          "indexed": false,
          "name": "value",
          "type": "uint256"
        },
        {
          "indexed": false,
          "name": "amount",
          "type": "uint256"
        }
      ],
      "name": "TokenPurchase",
      "type": "event"
    }
  ],
  "bytecode": "0x60606040526000600660146101000a81548160ff02191690831515021790555034156200002b57600080fd5b60405161014080620024838339810160405280805190602001909190805190602001909190805190602001909190805190602001909190805190602001909190805190602001909190805190602001909190805190602001909190805190602001909190805190602001909190505086868684428410151515620000ae57600080fd5b838310151515620000be57600080fd5b600082111515620000ce57600080fd5b600073ffffffffffffffffffffffffffffffffffffffff168173ffffffffffffffffffffffffffffffffffffffff16141515156200010b57600080fd5b62000129620002ae6401000000000262002189176401000000009004565b6000806101000a81548173ffffffffffffffffffffffffffffffffffffffff021916908373ffffffffffffffffffffffffffffffffffffffff16021790555083600181905550826002819055508160048190555080600360006101000a81548173ffffffffffffffffffffffffffffffffffffffff021916908373ffffffffffffffffffffffffffffffffffffffff1602179055505050505033600660006101000a81548173ffffffffffffffffffffffffffffffffffffffff021916908373ffffffffffffffffffffffffffffffffffffffff16021790555060008a1115156200021357600080fd5b60008173ffffffffffffffffffffffffffffffffffffffff16141515156200023a57600080fd5b89600781905550886008819055508760098190555083600a8190555082600b8190555080600c60006101000a81548173ffffffffffffffffffffffffffffffffffffffff021916908373ffffffffffffffffffffffffffffffffffffffff16021790555050505050505050505050620002b6565b600080905090565b6121bd80620002c66000396000f300606060405260043610610180576000357c0100000000000000000000000000000000000000000000000000000000900463ffffffff16806303ed9d211461018b578063058a628f146101ae57806306490f47146101e75780630b745a011461023c578063144fa6d7146102755780632c4e722e146102ae5780633197cbb6146102d7578063355274ea146103005780634042b66f1461032957806344691f7e1461035257806347786d371461037f5780634bb278f3146103a2578063521eb273146103b75780635af123f41461040c578063688cdba81461043557806378e979251461045e57806386ce0285146104875780638d3d6576146104c95780638d4e4083146104f25780638da5cb5b1461051f578063aaffadf314610574578063bff99c6c1461059d578063ccb98ffc146105f2578063d09edf3114610615578063eb3a88dc1461066a578063ec8ac4d8146106ac578063ecb70fb7146106da578063f2fde38b14610707578063f968f49314610740578063fc0c546a1461076d575b610189336107c2565b005b341561019657600080fd5b6101ac60048080359060200190919050506108f2565b005b34156101b957600080fd5b6101e5600480803573ffffffffffffffffffffffffffffffffffffffff16906020019091905050610958565b005b34156101f257600080fd5b6101fa610a0c565b604051808273ffffffffffffffffffffffffffffffffffffffff1673ffffffffffffffffffffffffffffffffffffffff16815260200191505060405180910390f35b341561024757600080fd5b610273600480803573ffffffffffffffffffffffffffffffffffffffff16906020019091905050610a32565b005b341561028057600080fd5b6102ac600480803573ffffffffffffffffffffffffffffffffffffffff16906020019091905050610ae6565b005b34156102b957600080fd5b6102c1610b99565b6040518082815260200191505060405180910390f35b34156102e257600080fd5b6102ea610b9f565b6040518082815260200191505060405180910390f35b341561030b57600080fd5b610313610ba5565b6040518082815260200191505060405180910390f35b341561033457600080fd5b61033c610bab565b6040518082815260200191505060405180910390f35b341561035d57600080fd5b610365610bb1565b604051808215151515815260200191505060405180910390f35b341561038a57600080fd5b6103a06004808035906020019091905050610bbd565b005b34156103ad57600080fd5b6103b5610c46565b005b34156103c257600080fd5b6103ca610d22565b604051808273ffffffffffffffffffffffffffffffffffffffff1673ffffffffffffffffffffffffffffffffffffffff16815260200191505060405180910390f35b341561041757600080fd5b61041f610d48565b6040518082815260200191505060405180910390f35b341561044057600080fd5b610448610d4e565b6040518082815260200191505060405180910390f35b341561046957600080fd5b610471610d54565b6040518082815260200191505060405180910390f35b341561049257600080fd5b6104c7600480803573ffffffffffffffffffffffffffffffffffffffff16906020019091908035906020019091905050610d5a565b005b34156104d457600080fd5b6104dc611083565b6040518082815260200191505060405180910390f35b34156104fd57600080fd5b610505611089565b604051808215151515815260200191505060405180910390f35b341561052a57600080fd5b61053261109c565b604051808273ffffffffffffffffffffffffffffffffffffffff1673ffffffffffffffffffffffffffffffffffffffff16815260200191505060405180910390f35b341561057f57600080fd5b6105876110c2565b6040518082815260200191505060405180910390f35b34156105a857600080fd5b6105b06110c8565b604051808273ffffffffffffffffffffffffffffffffffffffff1673ffffffffffffffffffffffffffffffffffffffff16815260200191505060405180910390f35b34156105fd57600080fd5b61061360048080359060200190919050506110ee565b005b341561062057600080fd5b610628611154565b604051808273ffffffffffffffffffffffffffffffffffffffff1673ffffffffffffffffffffffffffffffffffffffff16815260200191505060405180910390f35b341561067557600080fd5b6106aa600480803573ffffffffffffffffffffffffffffffffffffffff1690602001909190803590602001909190505061117a565b005b6106d8600480803573ffffffffffffffffffffffffffffffffffffffff169060200190919050506107c2565b005b34156106e557600080fd5b6106ed61161a565b604051808215151515815260200191505060405180910390f35b341561071257600080fd5b61073e600480803573ffffffffffffffffffffffffffffffffffffffff1690602001909190505061163d565b005b341561074b57600080fd5b610753611795565b604051808215151515815260200191505060405180910390f35b341561077857600080fd5b610780611b39565b604051808273ffffffffffffffffffffffffffffffffffffffff1673ffffffffffffffffffffffffffffffffffffffff16815260200191505060405180910390f35b60006107cd82611b5e565b6107e2600a5434611d4790919063ffffffff16565b90506000809054906101000a900473ffffffffffffffffffffffffffffffffffffffff1673ffffffffffffffffffffffffffffffffffffffff166340c10f19600c60009054906101000a900473ffffffffffffffffffffffffffffffffffffffff16836000604051602001526040518363ffffffff167c0100000000000000000000000000000000000000000000000000000000028152600401808373ffffffffffffffffffffffffffffffffffffffff1673ffffffffffffffffffffffffffffffffffffffff16815260200182815260200192505050602060405180830381600087803b15156108d257600080fd5b6102c65a03f115156108e357600080fd5b50505060405180519050505050565b600660009054906101000a900473ffffffffffffffffffffffffffffffffffffffff1673ffffffffffffffffffffffffffffffffffffffff163373ffffffffffffffffffffffffffffffffffffffff1614151561094e57600080fd5b8060098190555050565b600660009054906101000a900473ffffffffffffffffffffffffffffffffffffffff1673ffffffffffffffffffffffffffffffffffffffff163373ffffffffffffffffffffffffffffffffffffffff161415156109b457600080fd5b6109bc610bb1565b1515156109c857600080fd5b80600d60006101000a81548173ffffffffffffffffffffffffffffffffffffffff021916908373ffffffffffffffffffffffffffffffffffffffff16021790555050565b600e60009054906101000a900473ffffffffffffffffffffffffffffffffffffffff1681565b600660009054906101000a900473ffffffffffffffffffffffffffffffffffffffff1673ffffffffffffffffffffffffffffffffffffffff163373ffffffffffffffffffffffffffffffffffffffff16141515610a8e57600080fd5b610a96610bb1565b151515610aa257600080fd5b80600e60006101000a81548173ffffffffffffffffffffffffffffffffffffffff021916908373ffffffffffffffffffffffffffffffffffffffff16021790555050565b600660009054906101000a900473ffffffffffffffffffffffffffffffffffffffff1673ffffffffffffffffffffffffffffffffffffffff163373ffffffffffffffffffffffffffffffffffffffff16141515610b4257600080fd5b610b4a610bb1565b151515610b5657600080fd5b806000806101000a81548173ffffffffffffffffffffffffffffffffffffffff021916908373ffffffffffffffffffffffffffffffffffffffff16021790555050565b60045481565b60025481565b60075481565b60055481565b60006001544211905090565b600660009054906101000a900473ffffffffffffffffffffffffffffffffffffffff1673ffffffffffffffffffffffffffffffffffffffff163373ffffffffffffffffffffffffffffffffffffffff16141515610c1957600080fd5b600081111515610c2857600080fd5b610c30610bb1565b151515610c3c57600080fd5b8060078190555050565b600660009054906101000a900473ffffffffffffffffffffffffffffffffffffffff1673ffffffffffffffffffffffffffffffffffffffff163373ffffffffffffffffffffffffffffffffffffffff16141515610ca257600080fd5b600660149054906101000a900460ff16151515610cbe57600080fd5b610cc661161a565b1515610cd157600080fd5b610cd9611d82565b7f6823b073d48d6e3a7d385eeb601452d680e74bb46afe3255a7d778f3a9b1768160405160405180910390a16001600660146101000a81548160ff021916908315150217905550565b600360009054906101000a900473ffffffffffffffffffffffffffffffffffffffff1681565b600b5481565b600a5481565b60015481565b600080600660009054906101000a900473ffffffffffffffffffffffffffffffffffffffff1673ffffffffffffffffffffffffffffffffffffffff163373ffffffffffffffffffffffffffffffffffffffff16141515610db957600080fd5b600660149054906101000a900460ff16151515610dd557600080fd5b610dea60045484611e3e90919063ffffffff16565b9150610e0182600554611e5990919063ffffffff16565b6005819055506000809054906101000a900473ffffffffffffffffffffffffffffffffffffffff1673ffffffffffffffffffffffffffffffffffffffff166340c10f1985856000604051602001526040518363ffffffff167c0100000000000000000000000000000000000000000000000000000000028152600401808373ffffffffffffffffffffffffffffffffffffffff1673ffffffffffffffffffffffffffffffffffffffff16815260200182815260200192505050602060405180830381600087803b1515610ed357600080fd5b6102c65a03f11515610ee457600080fd5b5050506040518051905050610f04600a5483611d4790919063ffffffff16565b90506000809054906101000a900473ffffffffffffffffffffffffffffffffffffffff1673ffffffffffffffffffffffffffffffffffffffff166340c10f19600c60009054906101000a900473ffffffffffffffffffffffffffffffffffffffff16836000604051602001526040518363ffffffff167c0100000000000000000000000000000000000000000000000000000000028152600401808373ffffffffffffffffffffffffffffffffffffffff1673ffffffffffffffffffffffffffffffffffffffff16815260200182815260200192505050602060405180830381600087803b1515610ff457600080fd5b6102c65a03f1151561100557600080fd5b50505060405180519050508373ffffffffffffffffffffffffffffffffffffffff163373ffffffffffffffffffffffffffffffffffffffff167f623b3804fa71d67900d064613da8f94b9617215ee90799290593e1745087ad188486604051808381526020018281526020019250505060405180910390a350505050565b60095481565b600660149054906101000a900460ff1681565b600660009054906101000a900473ffffffffffffffffffffffffffffffffffffffff1681565b60085481565b600c60009054906101000a900473ffffffffffffffffffffffffffffffffffffffff1681565b600660009054906101000a900473ffffffffffffffffffffffffffffffffffffffff1673ffffffffffffffffffffffffffffffffffffffff163373ffffffffffffffffffffffffffffffffffffffff1614151561114a57600080fd5b8060028190555050565b600d60009054906101000a900473ffffffffffffffffffffffffffffffffffffffff1681565b6000806000600660009054906101000a900473ffffffffffffffffffffffffffffffffffffffff1673ffffffffffffffffffffffffffffffffffffffff163373ffffffffffffffffffffffffffffffffffffffff161415156111db57600080fd5b600660149054906101000a900460ff161515156111f757600080fd5b61122060045461121286600a54611d4790919063ffffffff16565b611e3e90919063ffffffff16565b92506000809054906101000a900473ffffffffffffffffffffffffffffffffffffffff1673ffffffffffffffffffffffffffffffffffffffff166340c10f19600c60009054906101000a900473ffffffffffffffffffffffffffffffffffffffff16856000604051602001526040518363ffffffff167c0100000000000000000000000000000000000000000000000000000000028152600401808373ffffffffffffffffffffffffffffffffffffffff1673ffffffffffffffffffffffffffffffffffffffff16815260200182815260200192505050602060405180830381600087803b151561131057600080fd5b6102c65a03f1151561132157600080fd5b5050506040518051905050611354606461134686600b54611d4790919063ffffffff16565b611e3e90919063ffffffff16565b9150600e60009054906101000a900473ffffffffffffffffffffffffffffffffffffffff1673ffffffffffffffffffffffffffffffffffffffff16636dc0a99786846040518363ffffffff167c0100000000000000000000000000000000000000000000000000000000028152600401808373ffffffffffffffffffffffffffffffffffffffff1673ffffffffffffffffffffffffffffffffffffffff16815260200182815260200192505050600060405180830381600087803b151561141a57600080fd5b6102c65a03f1151561142b57600080fd5b5050506000809054906101000a900473ffffffffffffffffffffffffffffffffffffffff1673ffffffffffffffffffffffffffffffffffffffff166340c10f1930846000604051602001526040518363ffffffff167c0100000000000000000000000000000000000000000000000000000000028152600401808373ffffffffffffffffffffffffffffffffffffffff1673ffffffffffffffffffffffffffffffffffffffff16815260200182815260200192505050602060405180830381600087803b15156114fa57600080fd5b6102c65a03f1151561150b57600080fd5b50505060405180519050506115298285611e7790919063ffffffff16565b90506000809054906101000a900473ffffffffffffffffffffffffffffffffffffffff1673ffffffffffffffffffffffffffffffffffffffff166340c10f1986836000604051602001526040518363ffffffff167c0100000000000000000000000000000000000000000000000000000000028152600401808373ffffffffffffffffffffffffffffffffffffffff1673ffffffffffffffffffffffffffffffffffffffff16815260200182815260200192505050602060405180830381600087803b15156115f757600080fd5b6102c65a03f1151561160857600080fd5b50505060405180519050505050505050565b6000806007546005541015905061162f611e90565b806116375750805b91505090565b600660009054906101000a900473ffffffffffffffffffffffffffffffffffffffff1673ffffffffffffffffffffffffffffffffffffffff163373ffffffffffffffffffffffffffffffffffffffff1614151561169957600080fd5b600073ffffffffffffffffffffffffffffffffffffffff168173ffffffffffffffffffffffffffffffffffffffff16141515156116d557600080fd5b8073ffffffffffffffffffffffffffffffffffffffff16600660009054906101000a900473ffffffffffffffffffffffffffffffffffffffff1673ffffffffffffffffffffffffffffffffffffffff167f8be0079c531659141344cd1fd0a4f28419497f9722a3daafe3b4186f6b6457e060405160405180910390a380600660006101000a81548173ffffffffffffffffffffffffffffffffffffffff021916908373ffffffffffffffffffffffffffffffffffffffff16021790555050565b600080600080600080600660009054906101000a900473ffffffffffffffffffffffffffffffffffffffff1673ffffffffffffffffffffffffffffffffffffffff163373ffffffffffffffffffffffffffffffffffffffff161415156117fa57600080fd5b600e60009054906101000a900473ffffffffffffffffffffffffffffffffffffffff1673ffffffffffffffffffffffffffffffffffffffff1663f95e63066000604051602001526040518163ffffffff167c0100000000000000000000000000000000000000000000000000000000028152600401602060405180830381600087803b151561188857600080fd5b6102c65a03f1151561189957600080fd5b5050506040518051905015156118b25760009550611b31565b600e60009054906101000a900473ffffffffffffffffffffffffffffffffffffffff1673ffffffffffffffffffffffffffffffffffffffff16633a2960e16000604051602001526040518163ffffffff167c0100000000000000000000000000000000000000000000000000000000028152600401602060405180830381600087803b151561194057600080fd5b6102c65a03f1151561195157600080fd5b505050604051805190509450600093505b84841015611b2c57600e60009054906101000a900473ffffffffffffffffffffffffffffffffffffffff1673ffffffffffffffffffffffffffffffffffffffff16636198e339856000604051606001526040518263ffffffff167c010000000000000000000000000000000000000000000000000000000002815260040180828152602001915050606060405180830381600087803b1515611a0357600080fd5b6102c65a03f11515611a1457600080fd5b505050604051805190602001805190602001805190509250925092508215611b1f576000809054906101000a900473ffffffffffffffffffffffffffffffffffffffff1673ffffffffffffffffffffffffffffffffffffffff1663a9059cbb83836000604051602001526040518363ffffffff167c0100000000000000000000000000000000000000000000000000000000028152600401808373ffffffffffffffffffffffffffffffffffffffff1673ffffffffffffffffffffffffffffffffffffffff16815260200182815260200192505050602060405180830381600087803b1515611b0257600080fd5b6102c65a03f11515611b1357600080fd5b50505060405180519050505b8380600101945050611962565b600195505b505050505090565b6000809054906101000a900473ffffffffffffffffffffffffffffffffffffffff1681565b600080600073ffffffffffffffffffffffffffffffffffffffff168373ffffffffffffffffffffffffffffffffffffffff1614151515611b9d57600080fd5b611ba5611e9c565b1515611bb057600080fd5b349150611bc860045483611d4790919063ffffffff16565b9050611bdf82600554611e5990919063ffffffff16565b6005819055506000809054906101000a900473ffffffffffffffffffffffffffffffffffffffff1673ffffffffffffffffffffffffffffffffffffffff166340c10f1984836000604051602001526040518363ffffffff167c0100000000000000000000000000000000000000000000000000000000028152600401808373ffffffffffffffffffffffffffffffffffffffff1673ffffffffffffffffffffffffffffffffffffffff16815260200182815260200192505050602060405180830381600087803b1515611cb157600080fd5b6102c65a03f11515611cc257600080fd5b50505060405180519050508273ffffffffffffffffffffffffffffffffffffffff163373ffffffffffffffffffffffffffffffffffffffff167f623b3804fa71d67900d064613da8f94b9617215ee90799290593e1745087ad188484604051808381526020018281526020019250505060405180910390a3611d426120f0565b505050565b6000806000841415611d5c5760009150611d7b565b8284029050828482811515611d6d57fe5b04141515611d7757fe5b8091505b5092915050565b6000809054906101000a900473ffffffffffffffffffffffffffffffffffffffff1673ffffffffffffffffffffffffffffffffffffffff16637d64bcb46000604051602001526040518163ffffffff167c0100000000000000000000000000000000000000000000000000000000028152600401602060405180830381600087803b1515611e0f57600080fd5b6102c65a03f11515611e2057600080fd5b5050506040518051905050611e33611795565b50611e3c612154565b565b6000808284811515611e4c57fe5b0490508091505092915050565b6000808284019050838110151515611e6d57fe5b8091505092915050565b6000828211151515611e8557fe5b818303905092915050565b60006002544211905090565b600080600080600080600754611ebd34600554611e5990919063ffffffff16565b11159450600d60009054906101000a900473ffffffffffffffffffffffffffffffffffffffff1673ffffffffffffffffffffffffffffffffffffffff1663fe9fbb80336000604051602001526040518263ffffffff167c0100000000000000000000000000000000000000000000000000000000028152600401808273ffffffffffffffffffffffffffffffffffffffff1673ffffffffffffffffffffffffffffffffffffffff168152602001915050602060405180830381600087803b1515611f8657600080fd5b6102c65a03f11515611f9757600080fd5b505050604051805190509350600854341015925061209e6004546000809054906101000a900473ffffffffffffffffffffffffffffffffffffffff1673ffffffffffffffffffffffffffffffffffffffff166370a08231336000604051602001526040518263ffffffff167c0100000000000000000000000000000000000000000000000000000000028152600401808273ffffffffffffffffffffffffffffffffffffffff1673ffffffffffffffffffffffffffffffffffffffff168152602001915050602060405180830381600087803b151561207557600080fd5b6102c65a03f1151561208657600080fd5b50505060405180519050611e3e90919063ffffffff16565b91506009546120b68334611e5990919063ffffffff16565b111590506120c2612156565b80156120cb5750845b80156120d45750835b80156120dd5750825b80156120e65750805b9550505050505090565b600360009054906101000a900473ffffffffffffffffffffffffffffffffffffffff1673ffffffffffffffffffffffffffffffffffffffff166108fc349081150290604051600060405180830381858888f19350505050151561215257600080fd5b565b565b6000806000600154421015801561216f57506002544211155b9150600034141590508180156121825750805b9250505090565b6000809050905600a165627a7a7230582060cb5449d5beac07197fded523da36894229e825eeddaa81989a6320292ebb560029",
  "source": "pragma solidity ^0.4.18;\n\nimport \"./BRDToken.sol\";\nimport \"./BRDCrowdsaleAuthorizer.sol\";\nimport \"./BRDLockup.sol\";\nimport \"./zeppelin-solidity-1.4/Crowdsale.sol\";\nimport \"./zeppelin-solidity-1.4/FinalizableCrowdsale.sol\";\nimport \"./zeppelin-solidity-1.4/MintableToken.sol\";\nimport \"./zeppelin-solidity-1.4/SafeMath.sol\";\n\n\ncontract BRDCrowdsale is FinalizableCrowdsale {\n  using SafeMath for uint256;\n\n  // maximum amount of wei raised during this crowdsale\n  uint256 public cap;\n\n  // minimum per-participant wei contribution\n  uint256 public minContribution;\n\n  // maximum per-participant wei contribution\n  uint256 public maxContribution;\n\n  // how many token unites the owner gets per buyer wei\n  uint256 public ownerRate;\n\n  // number of tokens per 100 to lock up in lockupTokens()\n  uint256 public bonusRate;\n\n  // the address to which the owner share of tokens are sent\n  address public tokenWallet;\n\n  // crowdsale authorizer contract determines who can participate\n  BRDCrowdsaleAuthorizer public authorizer;\n\n  // the lockup contract holds presale authorization amounts\n  BRDLockup public lockup;\n\n  // constructor\n  function BRDCrowdsale(\n    uint256 _cap,         // maximum wei raised\n    uint256 _minWei,      // minimum per-contributor wei\n    uint256 _maxWei,      // maximum per-contributor wei\n    uint256 _startTime,   // crowdsale start time\n    uint256 _endTime,     // crowdsale end time\n    uint256 _rate,        // tokens per wei\n    uint256 _ownerRate,   // owner tokens per buyer wei\n    uint256 _bonusRate,   // percentage of tokens to lockup\n    address _wallet,      // target eth wallet\n    address _tokenWallet) // target token wallet\n    Crowdsale(_startTime, _endTime, _rate, _wallet)\n   public\n  {\n    require(_cap > 0);\n    require(_tokenWallet != 0x0);\n    cap = _cap;\n    minContribution = _minWei;\n    maxContribution = _maxWei;\n    ownerRate = _ownerRate;\n    bonusRate = _bonusRate;\n    tokenWallet = _tokenWallet;\n  }\n\n  // overriding Crowdsale#hasEnded to add cap logic\n  // @return true if crowdsale event has ended\n  function hasEnded() public constant returns (bool) {\n    bool _capReached = weiRaised >= cap;\n    return super.hasEnded() || _capReached;\n  }\n\n  // @return true if the crowdsale has started\n  function hasStarted() public constant returns (bool) {\n    return now > startTime;\n  }\n\n  // overriding Crowdsale#buyTokens\n  // mints the ownerRate of tokens in addition to calling the super method\n  function buyTokens(address _beneficiary) public payable {\n    // call the parent method to mint tokens to the beneficiary\n    super.buyTokens(_beneficiary);\n    // calculate the owner share of tokens\n    uint256 _ownerTokens = msg.value.mul(ownerRate);\n    // mint the owner share and send to the owner toke wallet\n    token.mint(tokenWallet, _ownerTokens);\n  }\n\n  // immediately mint _amount tokens to the _beneficiary. this is used for OOB token purchases. \n  function allocateTokens(address _beneficiary, uint256 _amount) onlyOwner public {\n    require(!isFinalized);\n\n    // update state\n    uint256 _weiAmount = _amount.div(rate);\n    weiRaised = weiRaised.add(_weiAmount);\n\n    // mint the tokens to the beneficiary\n    token.mint(_beneficiary, _amount);\n\n    // mint the owner share tokens \n    uint256 _ownerTokens = _weiAmount.mul(ownerRate);\n    token.mint(tokenWallet, _ownerTokens);\n    \n    TokenPurchase(msg.sender, _beneficiary, _weiAmount, _amount);\n  }\n\n  // mints _amount tokens to the _beneficiary minus the bonusRate\n  // tokens to be locked up via the lockup contract. locked up tokens\n  // are sent to the contract and may be unlocked according to\n  // the lockup configuration after the sale ends\n  function lockupTokens(address _beneficiary, uint256 _amount) onlyOwner public {\n    require(!isFinalized);\n\n    // calculate the owner share of tokens\n    uint256 _ownerTokens = ownerRate.mul(_amount).div(rate);\n    // mint the owner share and send to the owner wallet\n    token.mint(tokenWallet, _ownerTokens);\n\n    // calculate the amount of tokens to be locked up\n    uint256 _lockupTokens = bonusRate.mul(_amount).div(100);\n    // create the locked allocation in the lockup contract\n    lockup.pushAllocation(_beneficiary, _lockupTokens);\n    // mint locked tokens to the crowdsale contract to later be unlocked\n    token.mint(this, _lockupTokens);\n\n    // the non-bonus tokens are immediately rewarded\n    uint256 _remainder = _amount.sub(_lockupTokens);\n    token.mint(_beneficiary, _remainder);\n  }\n\n  // unlocks tokens from the token lockup contract. no tokens are held by\n  // the lockup contract, just the amounts and times that tokens should be rewarded.\n  // the tokens are held by the crowdsale contract\n  function unlockTokens() onlyOwner public returns (bool _didIssueRewards) {\n    // attempt to process the interval. it update the allocation bookkeeping\n    // and will only return true when the interval should be processed\n    if (!lockup.processInterval())\n      return false;\n\n    // the total number of allocations\n    uint _numAllocations = lockup.numAllocations();\n\n    // for every allocation, attempt to unlock the reward\n    for (uint _i = 0; _i < _numAllocations; _i++) {\n      // attempt to unlock the reward\n      var (_shouldReward, _to, _amount) = lockup.unlock(_i);\n      // if the beneficiary should be rewarded, send them tokens\n      if (_shouldReward) {\n        token.transfer(_to, _amount);\n      }\n    }\n\n    return true;\n  }\n\n  // sets the authorizer contract if the crowdsale hasn't started\n  function setAuthorizer(BRDCrowdsaleAuthorizer _authorizer) onlyOwner public {\n    require(!hasStarted());\n    authorizer = _authorizer;\n  }\n\n  // sets the lockup contract if the crowdsale hasn't started\n  function setLockup(BRDLockup _lockup) onlyOwner public {\n    require(!hasStarted());\n    lockup = _lockup;\n  }\n\n  // sets the token contract if the crowdsale hasn't started\n  function setToken(BRDToken _token) onlyOwner public {\n    require(!hasStarted());\n    token = _token;\n  }\n\n  // set the cap on the contract if the crowdsale hasn't started\n  function setCap(uint256 _newCap) onlyOwner public {\n    require(_newCap > 0);\n    require(!hasStarted());\n    cap = _newCap;\n  }\n\n  // allows maxContribution to be modified\n  function setMaxContribution(uint256 _newMaxContribution) onlyOwner public {\n    maxContribution = _newMaxContribution;\n  }\n\n  // allows endTime to be modified\n  function setEndTime(uint256 _newEndTime) onlyOwner public {\n    endTime = _newEndTime;\n  }\n\n  // overriding Crowdsale#createTokenContract\n  function createTokenContract() internal returns (MintableToken) {\n    // set the token to null initially\n    // call setToken() above to set the actual token address\n    return BRDToken(address(0));\n  }\n\n  // function forwardFunds() internal {\n  //   if (!wallet.call.gas(200000).value(msg.value)()) {\n  //     revert();\n  //   }\n  // }\n\n  // overriding FinalizableCrowdsale#finalization\n  // finalizes minting for the token contract, disabling further minting\n  function finalization() internal {\n    // end minting\n    token.finishMinting();\n\n    // issue the first lockup reward\n    unlockTokens();\n\n    super.finalization();\n  }\n\n  // overriding Crowdsale#validPurchase to add extra cap logic\n  // @return true if crowdsale participants can buy at the moment\n  // checks whether the cap has not been reached, the purchaser has\n  // been authorized, and their contribution is within the min/max\n  // thresholds\n  function validPurchase() internal constant returns (bool) {\n    bool _withinCap = weiRaised.add(msg.value) <= cap;\n    bool _isAuthorized = authorizer.isAuthorized(msg.sender);\n    bool _isMin = msg.value >= minContribution;\n    uint256 _alreadyContributed = token.balanceOf(msg.sender).div(rate);\n    bool _withinMax = msg.value.add(_alreadyContributed) <= maxContribution;\n    return super.validPurchase() && _withinCap && _isAuthorized && _isMin && _withinMax;\n  }\n}\n",
  "sourcePath": "/Users/sam/dev/bread/smart-contracts/contracts/BRDCrowdsale.sol",
  "compiler": {
    "name": "solc",
    "version": "0.4.18+commit.9cf6e910.Emscripten.clang"
  },
  "schemaVersion": "1.0.1",
  "updatedAt": "2017-12-24T04:02:10.870Z"
}