{
  "contractName": "BRDCrowdsale",
  "abi": [
    {
      "constant": false,
      "inputs": [
        {
          "name": "_newMaxContribution",
          "type": "uint256"
        }
      ],
      "name": "setMaxContribution",
      "outputs": [],
      "payable": false,
      "type": "function",
      "stateMutability": "nonpayable"
    },
    {
      "constant": false,
      "inputs": [
        {
          "name": "_authorizer",
          "type": "address"
        }
      ],
      "name": "setAuthorizer",
      "outputs": [
        {
          "name": "",
          "type": "address"
        }
      ],
      "payable": false,
      "type": "function",
      "stateMutability": "nonpayable"
    },
    {
      "constant": true,
      "inputs": [
        {
          "name": "_lockup",
          "type": "address"
        }
      ],
      "name": "lockup",
      "outputs": [
        {
          "name": "",
          "type": "address"
        }
      ],
      "payable": false,
      "type": "function",
      "stateMutability": "view"
    },
    {
      "constant": false,
      "inputs": [
        {
          "name": "_lockup",
          "type": "address"
        }
      ],
      "name": "setLockup",
      "outputs": [],
      "payable": false,
      "type": "function",
      "stateMutability": "nonpayable"
    },
    {
      "constant": false,
      "inputs": [
        {
          "name": "_token",
          "type": "address"
        }
      ],
      "name": "setToken",
      "outputs": [
        {
          "name": "",
          "type": "uint256"
        }
      ],
      "payable": false,
      "type": "function",
      "stateMutability": "nonpayable"
    },
    {
      "constant": true,
      "inputs": [],
      "name": "rate",
      "outputs": [
        {
          "name": "",
          "type": "uint256"
        }
      ],
      "payable": false,
      "type": "function",
      "stateMutability": "view"
    },
    {
      "constant": true,
      "inputs": [],
      "name": "endTime",
      "outputs": [
        {
          "name": "",
          "type": "uint256"
        }
      ],
      "payable": false,
      "type": "function",
      "stateMutability": "view"
    },
    {
      "constant": true,
      "inputs": [],
      "name": "cap",
      "outputs": [
        {
          "name": "",
          "type": "uint256"
        }
      ],
      "payable": false,
      "type": "function",
      "stateMutability": "view"
    },
    {
      "constant": true,
      "inputs": [],
      "name": "weiRaised",
      "outputs": [
        {
          "name": "",
          "type": "uint256"
        }
      ],
      "payable": false,
      "type": "function",
      "stateMutability": "view"
    },
    {
      "constant": true,
      "inputs": [],
      "name": "hasStarted",
      "outputs": [
        {
          "name": "",
          "type": "bool"
        }
      ],
      "payable": false,
      "type": "function",
      "stateMutability": "view"
    },
    {
      "constant": false,
      "inputs": [],
      "name": "finalize",
      "outputs": [
        {
          "name": "",
          "type": "address"
        }
      ],
      "payable": false,
      "type": "function",
      "stateMutability": "nonpayable"
    },
    {
      "constant": true,
      "inputs": [],
      "name": "wallet",
      "outputs": [
        {
          "name": "",
          "type": "address"
        }
      ],
      "payable": false,
      "type": "function",
      "stateMutability": "view"
    },
    {
      "constant": true,
      "inputs": [],
      "name": "bonusRate",
      "outputs": [
        {
          "name": "",
          "type": "uint256"
        }
      ],
      "payable": false,
      "type": "function",
      "stateMutability": "view"
    },
    {
      "constant": true,
      "inputs": [],
      "name": "ownerRate",
      "outputs": [
        {
          "name": "",
          "type": "uint256"
        }
      ],
      "payable": false,
      "type": "function",
      "stateMutability": "view"
    },
    {
      "constant": true,
      "inputs": [],
      "name": "startTime",
      "outputs": [
        {
          "name": "",
          "type": "uint256"
        }
      ],
      "payable": false,
      "type": "function",
      "stateMutability": "view"
    },
    {
      "constant": true,
      "inputs": [],
      "name": "maxContribution",
      "outputs": [
        {
          "name": "",
          "type": "uint256"
        }
      ],
      "payable": false,
      "type": "function",
      "stateMutability": "view"
    },
    {
      "constant": true,
      "inputs": [],
      "name": "isFinalized",
      "outputs": [
        {
          "name": "",
          "type": "bool"
        }
      ],
      "payable": false,
      "type": "function",
      "stateMutability": "view"
    },
    {
      "constant": true,
      "inputs": [],
      "name": "owner",
      "outputs": [
        {
          "name": "",
          "type": "address"
        }
      ],
      "payable": false,
      "type": "function",
      "stateMutability": "view"
    },
    {
      "constant": true,
      "inputs": [],
      "name": "minContribution",
      "outputs": [
        {
          "name": "",
          "type": "uint256"
        }
      ],
      "payable": false,
      "type": "function",
      "stateMutability": "view"
    },
    {
      "constant": true,
      "inputs": [
        {
          "name": "_beneficiary",
          "type": "address"
        },
        {
          "name": "_amount",
          "type": "uint256"
        }
      ],
      "name": "authorizer",
      "outputs": [
        {
          "name": "",
          "type": "address"
        }
      ],
      "payable": false,
      "type": "function",
      "stateMutability": "view"
    },
    {
      "constant": false,
      "inputs": [
        {
          "name": "_beneficiary",
          "type": "address"
        },
        {
          "name": "_amount",
          "type": "uint256"
        }
      ],
      "name": "lockupTokens",
      "outputs": [],
      "payable": false,
      "type": "function",
      "stateMutability": "nonpayable"
    },
    {
      "constant": false,
      "inputs": [
        {
          "name": "_beneficiary",
          "type": "address"
        }
      ],
      "name": "buyTokens",
      "outputs": [
        {
          "name": "",
          "type": "bool"
        }
      ],
      "payable": true,
      "type": "function",
      "stateMutability": "payable"
    },
    {
      "constant": true,
      "inputs": [
        {
          "name": "newOwner",
          "type": "address"
        }
      ],
      "name": "hasEnded",
      "outputs": [
        {
          "name": "",
          "type": "bool"
        }
      ],
      "payable": false,
      "type": "function",
      "stateMutability": "view"
    },
    {
      "constant": false,
      "inputs": [
        {
          "name": "newOwner",
          "type": "address"
        }
      ],
      "name": "transferOwnership",
      "outputs": [
        {
          "name": "_didIssueRewards",
          "type": "bool"
        }
      ],
      "payable": false,
      "type": "function",
      "stateMutability": "nonpayable"
    },
    {
      "constant": false,
      "inputs": [],
      "name": "unlockTokens",
      "outputs": [
        {
          "name": "_didIssueRewards",
          "type": "bool"
        }
      ],
      "payable": false,
      "type": "function",
      "stateMutability": "nonpayable"
    },
    {
      "inputs": [
        {
          "name": "_cap",
          "type": "uint256"
        },
        {
          "name": "_minWei",
          "type": "uint256"
        },
        {
          "name": "_maxWei",
          "type": "uint256"
        },
        {
          "name": "_startTime",
          "type": "uint256"
        },
        {
          "name": "_endTime",
          "type": "uint256"
        },
        {
          "name": "_rate",
          "type": "uint256"
        },
        {
          "name": "_ownerRate",
          "type": "uint256"
        },
        {
          "name": "_bonusRate",
          "type": "uint256"
        },
        {
          "name": "_wallet",
          "type": "address"
        }
      ],
      "payable": false,
      "type": "function",
      "stateMutability": "view",
      "constant": true,
      "name": "token",
      "outputs": [
        {
          "name": "",
          "type": "address"
        }
      ]
    },
    {
      "payable": false,
      "type": "constructor",
      "stateMutability": "nonpayable",
      "inputs": [
        {
          "name": "_cap",
          "type": "uint256"
        },
        {
          "name": "_minWei",
          "type": "uint256"
        },
        {
          "name": "_maxWei",
          "type": "uint256"
        },
        {
          "name": "_startTime",
          "type": "uint256"
        },
        {
          "name": "_endTime",
          "type": "uint256"
        },
        {
          "name": "_rate",
          "type": "uint256"
        },
        {
          "name": "_ownerRate",
          "type": "uint256"
        },
        {
          "name": "_bonusRate",
          "type": "uint256"
        },
        {
          "name": "_wallet",
          "type": "address"
        }
      ]
    },
    {
      "anonymous": false,
      "inputs": [],
      "name": "Finalized",
      "type": "fallback",
      "payable": true,
      "stateMutability": "payable"
    },
    {
      "anonymous": false,
      "inputs": [
        {
          "indexed": true,
          "name": "previousOwner",
          "type": "address"
        },
        {
          "indexed": true,
          "name": "newOwner",
          "type": "address"
        }
      ],
      "name": "Finalized",
      "type": "event"
    },
    {
      "anonymous": false,
      "inputs": [
        {
          "indexed": true,
          "name": "previousOwner",
          "type": "address"
        },
        {
          "indexed": true,
          "name": "newOwner",
          "type": "address"
        },
        {
          "indexed": false,
          "name": "value",
          "type": "uint256"
        },
        {
          "indexed": false,
          "name": "amount",
          "type": "uint256"
        }
      ],
      "name": "OwnershipTransferred",
      "type": "event"
    },
    {
      "anonymous": false,
      "inputs": [
        {
          "indexed": true,
          "name": "purchaser",
          "type": "address"
        },
        {
          "indexed": true,
          "name": "beneficiary",
          "type": "address"
        },
        {
          "indexed": false,
          "name": "value",
          "type": "uint256"
        },
        {
          "indexed": false,
          "name": "amount",
          "type": "uint256"
        }
      ],
      "name": "TokenPurchase",
      "type": "event"
    }
  ],
  "bytecode": "0x60606040526000600660146101000a81548160ff02191690831515021790555034156200002b57600080fd5b6040516101208062001e968339810160405280805190602001909190805190602001909190805190602001909190805190602001909190805190602001909190805190602001909190805190602001909190805190602001909190805190602001909190505085858583428410151515620000a557600080fd5b838310151515620000b557600080fd5b600082111515620000c557600080fd5b60008173ffffffffffffffffffffffffffffffffffffffff1614151515620000ec57600080fd5b6200010a620002266401000000000262001c24176401000000009004565b6000806101000a81548173ffffffffffffffffffffffffffffffffffffffff021916908373ffffffffffffffffffffffffffffffffffffffff16021790555083600181905550826002819055508160048190555080600360006101000a81548173ffffffffffffffffffffffffffffffffffffffff021916908373ffffffffffffffffffffffffffffffffffffffff1602179055505050505033600660006101000a81548173ffffffffffffffffffffffffffffffffffffffff021916908373ffffffffffffffffffffffffffffffffffffffff160217905550600089111515620001f457600080fd5b88600781905550876008819055508660098190555082600a8190555081600b819055505050505050505050506200022e565b600080905090565b611c58806200023e6000396000f300606060405260043610610154576000357c0100000000000000000000000000000000000000000000000000000000900463ffffffff16806303ed9d211461015f578063058a628f1461018257806306490f47146101bb5780630b745a0114610210578063144fa6d7146102495780632c4e722e146102825780633197cbb6146102ab578063355274ea146102d45780634042b66f146102fd57806344691f7e146103265780634bb278f314610353578063521eb273146103685780635af123f4146103bd578063688cdba8146103e657806378e979251461040f5780638d3d6576146104385780638d4e4083146104615780638da5cb5b1461048e578063aaffadf3146104e3578063d09edf311461050c578063eb3a88dc14610561578063ec8ac4d8146105a3578063ecb70fb7146105d1578063f2fde38b146105fe578063f968f49314610637578063fc0c546a14610664575b61015d336106b9565b005b341561016a57600080fd5b61018060048080359060200190919050506107e9565b005b341561018d57600080fd5b6101b9600480803573ffffffffffffffffffffffffffffffffffffffff1690602001909190505061084f565b005b34156101c657600080fd5b6101ce610903565b604051808273ffffffffffffffffffffffffffffffffffffffff1673ffffffffffffffffffffffffffffffffffffffff16815260200191505060405180910390f35b341561021b57600080fd5b610247600480803573ffffffffffffffffffffffffffffffffffffffff16906020019091905050610929565b005b341561025457600080fd5b610280600480803573ffffffffffffffffffffffffffffffffffffffff169060200190919050506109dd565b005b341561028d57600080fd5b610295610a90565b6040518082815260200191505060405180910390f35b34156102b657600080fd5b6102be610a96565b6040518082815260200191505060405180910390f35b34156102df57600080fd5b6102e7610a9c565b6040518082815260200191505060405180910390f35b341561030857600080fd5b610310610aa2565b6040518082815260200191505060405180910390f35b341561033157600080fd5b610339610aa8565b604051808215151515815260200191505060405180910390f35b341561035e57600080fd5b610366610ab4565b005b341561037357600080fd5b61037b610b90565b604051808273ffffffffffffffffffffffffffffffffffffffff1673ffffffffffffffffffffffffffffffffffffffff16815260200191505060405180910390f35b34156103c857600080fd5b6103d0610bb6565b6040518082815260200191505060405180910390f35b34156103f157600080fd5b6103f9610bbc565b6040518082815260200191505060405180910390f35b341561041a57600080fd5b610422610bc2565b6040518082815260200191505060405180910390f35b341561044357600080fd5b61044b610bc8565b6040518082815260200191505060405180910390f35b341561046c57600080fd5b610474610bce565b604051808215151515815260200191505060405180910390f35b341561049957600080fd5b6104a1610be1565b604051808273ffffffffffffffffffffffffffffffffffffffff1673ffffffffffffffffffffffffffffffffffffffff16815260200191505060405180910390f35b34156104ee57600080fd5b6104f6610c07565b6040518082815260200191505060405180910390f35b341561051757600080fd5b61051f610c0d565b604051808273ffffffffffffffffffffffffffffffffffffffff1673ffffffffffffffffffffffffffffffffffffffff16815260200191505060405180910390f35b341561056c57600080fd5b6105a1600480803573ffffffffffffffffffffffffffffffffffffffff16906020019091908035906020019091905050610c33565b005b6105cf600480803573ffffffffffffffffffffffffffffffffffffffff169060200190919050506106b9565b005b34156105dc57600080fd5b6105e46110d3565b604051808215151515815260200191505060405180910390f35b341561060957600080fd5b610635600480803573ffffffffffffffffffffffffffffffffffffffff169060200190919050506110f6565b005b341561064257600080fd5b61064a61124e565b604051808215151515815260200191505060405180910390f35b341561066f57600080fd5b6106776115f2565b604051808273ffffffffffffffffffffffffffffffffffffffff1673ffffffffffffffffffffffffffffffffffffffff16815260200191505060405180910390f35b60006106c482611617565b6106d9600a54346117ea90919063ffffffff16565b90506000809054906101000a900473ffffffffffffffffffffffffffffffffffffffff1673ffffffffffffffffffffffffffffffffffffffff166340c10f19600360009054906101000a900473ffffffffffffffffffffffffffffffffffffffff16836000604051602001526040518363ffffffff167c0100000000000000000000000000000000000000000000000000000000028152600401808373ffffffffffffffffffffffffffffffffffffffff1673ffffffffffffffffffffffffffffffffffffffff16815260200182815260200192505050602060405180830381600087803b15156107c957600080fd5b6102c65a03f115156107da57600080fd5b50505060405180519050505050565b600660009054906101000a900473ffffffffffffffffffffffffffffffffffffffff1673ffffffffffffffffffffffffffffffffffffffff163373ffffffffffffffffffffffffffffffffffffffff1614151561084557600080fd5b8060098190555050565b600660009054906101000a900473ffffffffffffffffffffffffffffffffffffffff1673ffffffffffffffffffffffffffffffffffffffff163373ffffffffffffffffffffffffffffffffffffffff161415156108ab57600080fd5b6108b3610aa8565b1515156108bf57600080fd5b80600c60006101000a81548173ffffffffffffffffffffffffffffffffffffffff021916908373ffffffffffffffffffffffffffffffffffffffff16021790555050565b600d60009054906101000a900473ffffffffffffffffffffffffffffffffffffffff1681565b600660009054906101000a900473ffffffffffffffffffffffffffffffffffffffff1673ffffffffffffffffffffffffffffffffffffffff163373ffffffffffffffffffffffffffffffffffffffff1614151561098557600080fd5b61098d610aa8565b15151561099957600080fd5b80600d60006101000a81548173ffffffffffffffffffffffffffffffffffffffff021916908373ffffffffffffffffffffffffffffffffffffffff16021790555050565b600660009054906101000a900473ffffffffffffffffffffffffffffffffffffffff1673ffffffffffffffffffffffffffffffffffffffff163373ffffffffffffffffffffffffffffffffffffffff16141515610a3957600080fd5b610a41610aa8565b151515610a4d57600080fd5b806000806101000a81548173ffffffffffffffffffffffffffffffffffffffff021916908373ffffffffffffffffffffffffffffffffffffffff16021790555050565b60045481565b60025481565b60075481565b60055481565b60006001544211905090565b600660009054906101000a900473ffffffffffffffffffffffffffffffffffffffff1673ffffffffffffffffffffffffffffffffffffffff163373ffffffffffffffffffffffffffffffffffffffff16141515610b1057600080fd5b600660149054906101000a900460ff16151515610b2c57600080fd5b610b346110d3565b1515610b3f57600080fd5b610b4761181d565b7f6823b073d48d6e3a7d385eeb601452d680e74bb46afe3255a7d778f3a9b1768160405160405180910390a16001600660146101000a81548160ff021916908315150217905550565b600360009054906101000a900473ffffffffffffffffffffffffffffffffffffffff1681565b600b5481565b600a5481565b60015481565b60095481565b600660149054906101000a900460ff1681565b600660009054906101000a900473ffffffffffffffffffffffffffffffffffffffff1681565b60085481565b600c60009054906101000a900473ffffffffffffffffffffffffffffffffffffffff1681565b6000806000600660009054906101000a900473ffffffffffffffffffffffffffffffffffffffff1673ffffffffffffffffffffffffffffffffffffffff163373ffffffffffffffffffffffffffffffffffffffff16141515610c9457600080fd5b600660149054906101000a900460ff16151515610cb057600080fd5b610cd9600454610ccb86600a546117ea90919063ffffffff16565b6118d990919063ffffffff16565b92506000809054906101000a900473ffffffffffffffffffffffffffffffffffffffff1673ffffffffffffffffffffffffffffffffffffffff166340c10f19600360009054906101000a900473ffffffffffffffffffffffffffffffffffffffff16856000604051602001526040518363ffffffff167c0100000000000000000000000000000000000000000000000000000000028152600401808373ffffffffffffffffffffffffffffffffffffffff1673ffffffffffffffffffffffffffffffffffffffff16815260200182815260200192505050602060405180830381600087803b1515610dc957600080fd5b6102c65a03f11515610dda57600080fd5b5050506040518051905050610e0d6064610dff86600b546117ea90919063ffffffff16565b6118d990919063ffffffff16565b9150600d60009054906101000a900473ffffffffffffffffffffffffffffffffffffffff1673ffffffffffffffffffffffffffffffffffffffff16636dc0a99786846040518363ffffffff167c0100000000000000000000000000000000000000000000000000000000028152600401808373ffffffffffffffffffffffffffffffffffffffff1673ffffffffffffffffffffffffffffffffffffffff16815260200182815260200192505050600060405180830381600087803b1515610ed357600080fd5b6102c65a03f11515610ee457600080fd5b5050506000809054906101000a900473ffffffffffffffffffffffffffffffffffffffff1673ffffffffffffffffffffffffffffffffffffffff166340c10f1930846000604051602001526040518363ffffffff167c0100000000000000000000000000000000000000000000000000000000028152600401808373ffffffffffffffffffffffffffffffffffffffff1673ffffffffffffffffffffffffffffffffffffffff16815260200182815260200192505050602060405180830381600087803b1515610fb357600080fd5b6102c65a03f11515610fc457600080fd5b5050506040518051905050610fe282856118f490919063ffffffff16565b90506000809054906101000a900473ffffffffffffffffffffffffffffffffffffffff1673ffffffffffffffffffffffffffffffffffffffff166340c10f1986836000604051602001526040518363ffffffff167c0100000000000000000000000000000000000000000000000000000000028152600401808373ffffffffffffffffffffffffffffffffffffffff1673ffffffffffffffffffffffffffffffffffffffff16815260200182815260200192505050602060405180830381600087803b15156110b057600080fd5b6102c65a03f115156110c157600080fd5b50505060405180519050505050505050565b600080600754600554101590506110e861190d565b806110f05750805b91505090565b600660009054906101000a900473ffffffffffffffffffffffffffffffffffffffff1673ffffffffffffffffffffffffffffffffffffffff163373ffffffffffffffffffffffffffffffffffffffff1614151561115257600080fd5b600073ffffffffffffffffffffffffffffffffffffffff168173ffffffffffffffffffffffffffffffffffffffff161415151561118e57600080fd5b8073ffffffffffffffffffffffffffffffffffffffff16600660009054906101000a900473ffffffffffffffffffffffffffffffffffffffff1673ffffffffffffffffffffffffffffffffffffffff167f8be0079c531659141344cd1fd0a4f28419497f9722a3daafe3b4186f6b6457e060405160405180910390a380600660006101000a81548173ffffffffffffffffffffffffffffffffffffffff021916908373ffffffffffffffffffffffffffffffffffffffff16021790555050565b600080600080600080600660009054906101000a900473ffffffffffffffffffffffffffffffffffffffff1673ffffffffffffffffffffffffffffffffffffffff163373ffffffffffffffffffffffffffffffffffffffff161415156112b357600080fd5b600d60009054906101000a900473ffffffffffffffffffffffffffffffffffffffff1673ffffffffffffffffffffffffffffffffffffffff1663f95e63066000604051602001526040518163ffffffff167c0100000000000000000000000000000000000000000000000000000000028152600401602060405180830381600087803b151561134157600080fd5b6102c65a03f1151561135257600080fd5b50505060405180519050151561136b57600095506115ea565b600d60009054906101000a900473ffffffffffffffffffffffffffffffffffffffff1673ffffffffffffffffffffffffffffffffffffffff16633a2960e16000604051602001526040518163ffffffff167c0100000000000000000000000000000000000000000000000000000000028152600401602060405180830381600087803b15156113f957600080fd5b6102c65a03f1151561140a57600080fd5b505050604051805190509450600093505b848410156115e557600d60009054906101000a900473ffffffffffffffffffffffffffffffffffffffff1673ffffffffffffffffffffffffffffffffffffffff16636198e339856000604051606001526040518263ffffffff167c010000000000000000000000000000000000000000000000000000000002815260040180828152602001915050606060405180830381600087803b15156114bc57600080fd5b6102c65a03f115156114cd57600080fd5b5050506040518051906020018051906020018051905092509250925082156115d8576000809054906101000a900473ffffffffffffffffffffffffffffffffffffffff1673ffffffffffffffffffffffffffffffffffffffff1663a9059cbb83836000604051602001526040518363ffffffff167c0100000000000000000000000000000000000000000000000000000000028152600401808373ffffffffffffffffffffffffffffffffffffffff1673ffffffffffffffffffffffffffffffffffffffff16815260200182815260200192505050602060405180830381600087803b15156115bb57600080fd5b6102c65a03f115156115cc57600080fd5b50505060405180519050505b838060010194505061141b565b600195505b505050505090565b6000809054906101000a900473ffffffffffffffffffffffffffffffffffffffff1681565b60008060008373ffffffffffffffffffffffffffffffffffffffff161415151561164057600080fd5b611648611919565b151561165357600080fd5b34915061166b600454836117ea90919063ffffffff16565b905061168282600554611b6d90919063ffffffff16565b6005819055506000809054906101000a900473ffffffffffffffffffffffffffffffffffffffff1673ffffffffffffffffffffffffffffffffffffffff166340c10f1984836000604051602001526040518363ffffffff167c0100000000000000000000000000000000000000000000000000000000028152600401808373ffffffffffffffffffffffffffffffffffffffff1673ffffffffffffffffffffffffffffffffffffffff16815260200182815260200192505050602060405180830381600087803b151561175457600080fd5b6102c65a03f1151561176557600080fd5b50505060405180519050508273ffffffffffffffffffffffffffffffffffffffff163373ffffffffffffffffffffffffffffffffffffffff167f623b3804fa71d67900d064613da8f94b9617215ee90799290593e1745087ad188484604051808381526020018281526020019250505060405180910390a36117e5611b8b565b505050565b6000808284029050600084148061180b575082848281151561180857fe5b04145b151561181357fe5b8091505092915050565b6000809054906101000a900473ffffffffffffffffffffffffffffffffffffffff1673ffffffffffffffffffffffffffffffffffffffff16637d64bcb46000604051602001526040518163ffffffff167c0100000000000000000000000000000000000000000000000000000000028152600401602060405180830381600087803b15156118aa57600080fd5b6102c65a03f115156118bb57600080fd5b50505060405180519050506118ce61124e565b506118d7611bef565b565b60008082848115156118e757fe5b0490508091505092915050565b600082821115151561190257fe5b818303905092915050565b60006002544211905090565b60008060008060008060075461193a34600554611b6d90919063ffffffff16565b11159450600c60009054906101000a900473ffffffffffffffffffffffffffffffffffffffff1673ffffffffffffffffffffffffffffffffffffffff1663fe9fbb80336000604051602001526040518263ffffffff167c0100000000000000000000000000000000000000000000000000000000028152600401808273ffffffffffffffffffffffffffffffffffffffff1673ffffffffffffffffffffffffffffffffffffffff168152602001915050602060405180830381600087803b1515611a0357600080fd5b6102c65a03f11515611a1457600080fd5b5050506040518051905093506008543410159250611b1b6004546000809054906101000a900473ffffffffffffffffffffffffffffffffffffffff1673ffffffffffffffffffffffffffffffffffffffff166370a08231336000604051602001526040518263ffffffff167c0100000000000000000000000000000000000000000000000000000000028152600401808273ffffffffffffffffffffffffffffffffffffffff1673ffffffffffffffffffffffffffffffffffffffff168152602001915050602060405180830381600087803b1515611af257600080fd5b6102c65a03f11515611b0357600080fd5b505050604051805190506118d990919063ffffffff16565b9150600954611b338334611b6d90919063ffffffff16565b11159050611b3f611bf1565b8015611b485750845b8015611b515750835b8015611b5a5750825b8015611b635750805b9550505050505090565b6000808284019050838110151515611b8157fe5b8091505092915050565b600360009054906101000a900473ffffffffffffffffffffffffffffffffffffffff1673ffffffffffffffffffffffffffffffffffffffff166108fc349081150290604051600060405180830381858888f193505050501515611bed57600080fd5b565b565b60008060006001544210158015611c0a57506002544211155b915060003414159050818015611c1d5750805b9250505090565b6000809050905600a165627a7a72305820a97e319e78a183e516b3472272857a140605cf8702a4333da46f36a03bda016a0029",
  "source": "pragma solidity ^0.4.18;\n\nimport \"./BRDToken.sol\";\nimport \"./BRDCrowdsaleAuthorizer.sol\";\nimport \"./BRDLockup.sol\";\nimport \"zeppelin-solidity/contracts/crowdsale/Crowdsale.sol\";\nimport \"zeppelin-solidity/contracts/crowdsale/FinalizableCrowdsale.sol\";\nimport \"zeppelin-solidity/contracts/token/MintableToken.sol\";\nimport \"zeppelin-solidity/contracts/math/SafeMath.sol\";\n\n\ncontract BRDCrowdsale is FinalizableCrowdsale {\n  using SafeMath for uint256;\n\n  // maximum amount of wei raised during this crowdsale\n  uint256 public cap;\n\n  // minimum per-participant wei contribution\n  uint256 public minContribution;\n\n  // maximum per-participant wei contribution\n  uint256 public maxContribution;\n\n  // how many token unites the owner gets per buyer wei\n  uint256 public ownerRate;\n\n  // number of tokens per 100 to lock up in lockupTokens()\n  uint256 public bonusRate;\n\n  // crowdsale authorizer contract determines who can participate\n  BRDCrowdsaleAuthorizer public authorizer;\n\n  // the lockup contract holds presale authorization amounts\n  BRDLockup public lockup;\n\n  // constructor\n  function BRDCrowdsale(\n    uint256 _cap,         // maximum wei raised\n    uint256 _minWei,      // minimum per-contributor wei\n    uint256 _maxWei,      // maximum per-contributor wei\n    uint256 _startTime,   // crowdsale start time\n    uint256 _endTime,     // crowdsale end time\n    uint256 _rate,        // tokens per wei\n    uint256 _ownerRate,   // owner tokens per buyer wei\n    uint256 _bonusRate,   // percentage of tokens to lockup\n    address _wallet)      // target funds wallet\n    Crowdsale(_startTime, _endTime, _rate, _wallet)\n   public\n  {\n    require(_cap > 0);\n    cap = _cap;\n    minContribution = _minWei;\n    maxContribution = _maxWei;\n    ownerRate = _ownerRate;\n    bonusRate = _bonusRate;\n  }\n\n  // overriding Crowdsale#hasEnded to add cap logic\n  // @return true if crowdsale event has ended\n  function hasEnded() public constant returns (bool) {\n    bool _capReached = weiRaised >= cap;\n    return super.hasEnded() || _capReached;\n  }\n\n  // @return true if the crowdsale has started\n  function hasStarted() public constant returns (bool) {\n    return now > startTime;\n  }\n\n  // overriding Crowdsale#buyTokens\n  // mints the ownerRate of tokens in addition to calling the super method\n  function buyTokens(address _beneficiary) public payable {\n    // call the parent method to mint tokens to the beneficiary\n    super.buyTokens(_beneficiary);\n    // calculate the owner share of tokens\n    uint256 _ownerTokens = msg.value.mul(ownerRate);\n    // mint the owner share and send to the owner wallet\n    token.mint(wallet, _ownerTokens);\n  }\n\n  // mints _amount tokens to the _beneficiary minus the bonusRate\n  // tokens to be locked up via the lockup contract. locked up tokens\n  // are sent to the contract and may be unlocked according to\n  // the lockup configuration after the sale ends\n  function lockupTokens(address _beneficiary, uint256 _amount) onlyOwner  public {\n    require(!isFinalized);\n\n    // calculate the owner share of tokens\n    uint256 _ownerTokens = ownerRate.mul(_amount).div(rate);\n    // mint the owner share and send to the owner wallet\n    token.mint(wallet, _ownerTokens);\n\n    // calculate the amount of tokens to be locked up\n    uint256 _lockupTokens = bonusRate.mul(_amount).div(100);\n    // create the locked allocation in the lockup contract\n    lockup.pushAllocation(_beneficiary, _lockupTokens);\n    // mint locked tokens to the crowdsale contract to later be unlocked\n    token.mint(this, _lockupTokens);\n\n    // the non-bonus tokens are immediately rewarded\n    uint256 _remainder = _amount.sub(_lockupTokens);\n    token.mint(_beneficiary, _remainder);\n  }\n\n  // unlocks tokens from the token lockup contract. no tokens are held by\n  // the lockup contract, just the amounts and times that tokens should be rewarded.\n  // the tokens are held by the crowdsale contract\n  function unlockTokens() onlyOwner public returns (bool _didIssueRewards) {\n    // attempt to process the interval. it update the allocation bookkeeping\n    // and will only return true when the interval should be processed\n    if (!lockup.processInterval())\n      return false;\n\n    // the total number of allocations\n    uint _numAllocations = lockup.numAllocations();\n\n    // for every allocation, attempt to unlock the reward\n    for (uint _i = 0; _i < _numAllocations; _i++) {\n      // attempt to unlock the reward\n      var (_shouldReward, _to, _amount) = lockup.unlock(_i);\n      // if the beneficiary should be rewarded, send them tokens\n      if (_shouldReward) {\n        token.transfer(_to, _amount);\n      }\n    }\n\n    return true;\n  }\n\n  // sets the authorizer contract if the crowdsale hasn't started\n  function setAuthorizer(BRDCrowdsaleAuthorizer _authorizer) onlyOwner public {\n    require(!hasStarted());\n    authorizer = _authorizer;\n  }\n\n  // sets the lockup contract if the crowdsale hasn't started\n  function setLockup(BRDLockup _lockup) onlyOwner public {\n    require(!hasStarted());\n    lockup = _lockup;\n  }\n\n  // sets the token contract if the crowdsale hasn't started\n  function setToken(BRDToken _token) onlyOwner public {\n    require(!hasStarted());\n    token = _token;\n  }\n\n  function setMaxContribution(uint256 _newMaxContribution) onlyOwner public {\n    maxContribution = _newMaxContribution;\n  }\n\n  // overriding Crowdsale#createTokenContract\n  function createTokenContract() internal returns (MintableToken) {\n    // set the token to null initially\n    // call setToken() above to set the actual token address\n    return BRDToken(address(0));\n  }\n\n  // overriding FinalizableCrowdsale#finalization\n  // finalizes minting for the token contract, disabling further minting\n  function finalization() internal {\n    // end minting\n    token.finishMinting();\n\n    // issue the first lockup reward\n    unlockTokens();\n\n    super.finalization();\n  }\n\n  // overriding Crowdsale#validPurchase to add extra cap logic\n  // @return true if crowdsale participants can buy at the moment\n  // checks whether the cap has not been reached, the purchaser has\n  // been authorized, and their contribution is within the min/max\n  // thresholds\n  function validPurchase() internal constant returns (bool) {\n    bool _withinCap = weiRaised.add(msg.value) <= cap;\n    bool _isAuthorized = authorizer.isAuthorized(msg.sender);\n    bool _isMin = msg.value >= minContribution;\n    uint256 _alreadyContributed = token.balanceOf(msg.sender).div(rate);\n    bool _withinMax = msg.value.add(_alreadyContributed) <= maxContribution;\n    return super.validPurchase() && _withinCap && _isAuthorized && _isMin && _withinMax;\n  }\n}\n",
  "sourcePath": "/Users/sam/dev/bread/smart-contracts/contracts/BRDCrowdsale.sol",
  "compiler": {
    "name": "solc",
    "version": "0.4.18+commit.9cf6e910.Emscripten.clang"
  },
  "schemaVersion": "1.0.1",
  "updatedAt": "2017-12-06T22:13:29.432Z"
}