{
  "contractName": "BRDCrowdsale",
  "abi": [
    {
      "constant": false,
      "inputs": [
        {
          "name": "_newMaxContribution",
          "type": "uint256"
        }
      ],
      "name": "setMaxContribution",
      "outputs": [],
      "payable": false,
      "stateMutability": "nonpayable",
      "type": "function"
    },
    {
      "constant": false,
      "inputs": [
        {
          "name": "_authorizer",
          "type": "address"
        }
      ],
      "name": "setAuthorizer",
      "outputs": [],
      "payable": false,
      "stateMutability": "nonpayable",
      "type": "function"
    },
    {
      "constant": true,
      "inputs": [],
      "name": "lockup",
      "outputs": [
        {
          "name": "",
          "type": "address"
        }
      ],
      "payable": false,
      "stateMutability": "view",
      "type": "function"
    },
    {
      "constant": false,
      "inputs": [
        {
          "name": "_lockup",
          "type": "address"
        }
      ],
      "name": "setLockup",
      "outputs": [],
      "payable": false,
      "stateMutability": "nonpayable",
      "type": "function"
    },
    {
      "constant": false,
      "inputs": [
        {
          "name": "_token",
          "type": "address"
        }
      ],
      "name": "setToken",
      "outputs": [],
      "payable": false,
      "stateMutability": "nonpayable",
      "type": "function"
    },
    {
      "constant": true,
      "inputs": [],
      "name": "rate",
      "outputs": [
        {
          "name": "",
          "type": "uint256"
        }
      ],
      "payable": false,
      "stateMutability": "view",
      "type": "function"
    },
    {
      "constant": true,
      "inputs": [],
      "name": "endTime",
      "outputs": [
        {
          "name": "",
          "type": "uint256"
        }
      ],
      "payable": false,
      "stateMutability": "view",
      "type": "function"
    },
    {
      "constant": true,
      "inputs": [],
      "name": "cap",
      "outputs": [
        {
          "name": "",
          "type": "uint256"
        }
      ],
      "payable": false,
      "stateMutability": "view",
      "type": "function"
    },
    {
      "constant": true,
      "inputs": [],
      "name": "weiRaised",
      "outputs": [
        {
          "name": "",
          "type": "uint256"
        }
      ],
      "payable": false,
      "stateMutability": "view",
      "type": "function"
    },
    {
      "constant": true,
      "inputs": [],
      "name": "hasStarted",
      "outputs": [
        {
          "name": "",
          "type": "bool"
        }
      ],
      "payable": false,
      "stateMutability": "view",
      "type": "function"
    },
    {
      "constant": false,
      "inputs": [],
      "name": "finalize",
      "outputs": [],
      "payable": false,
      "stateMutability": "nonpayable",
      "type": "function"
    },
    {
      "constant": true,
      "inputs": [],
      "name": "wallet",
      "outputs": [
        {
          "name": "",
          "type": "address"
        }
      ],
      "payable": false,
      "stateMutability": "view",
      "type": "function"
    },
    {
      "constant": true,
      "inputs": [],
      "name": "bonusRate",
      "outputs": [
        {
          "name": "",
          "type": "uint256"
        }
      ],
      "payable": false,
      "stateMutability": "view",
      "type": "function"
    },
    {
      "constant": true,
      "inputs": [],
      "name": "ownerRate",
      "outputs": [
        {
          "name": "",
          "type": "uint256"
        }
      ],
      "payable": false,
      "stateMutability": "view",
      "type": "function"
    },
    {
      "constant": true,
      "inputs": [],
      "name": "startTime",
      "outputs": [
        {
          "name": "",
          "type": "uint256"
        }
      ],
      "payable": false,
      "stateMutability": "view",
      "type": "function"
    },
    {
      "constant": false,
      "inputs": [
        {
          "name": "_beneficiary",
          "type": "address"
        },
        {
          "name": "_amount",
          "type": "uint256"
        }
      ],
      "name": "allocateTokens",
      "outputs": [],
      "payable": false,
      "stateMutability": "nonpayable",
      "type": "function"
    },
    {
      "constant": true,
      "inputs": [],
      "name": "maxContribution",
      "outputs": [
        {
          "name": "",
          "type": "uint256"
        }
      ],
      "payable": false,
      "stateMutability": "view",
      "type": "function"
    },
    {
      "constant": true,
      "inputs": [],
      "name": "isFinalized",
      "outputs": [
        {
          "name": "",
          "type": "bool"
        }
      ],
      "payable": false,
      "stateMutability": "view",
      "type": "function"
    },
    {
      "constant": true,
      "inputs": [],
      "name": "owner",
      "outputs": [
        {
          "name": "",
          "type": "address"
        }
      ],
      "payable": false,
      "stateMutability": "view",
      "type": "function"
    },
    {
      "constant": true,
      "inputs": [],
      "name": "minContribution",
      "outputs": [
        {
          "name": "",
          "type": "uint256"
        }
      ],
      "payable": false,
      "stateMutability": "view",
      "type": "function"
    },
    {
      "constant": false,
      "inputs": [
        {
          "name": "_newEndTime",
          "type": "uint256"
        }
      ],
      "name": "setEndTime",
      "outputs": [],
      "payable": false,
      "stateMutability": "nonpayable",
      "type": "function"
    },
    {
      "constant": true,
      "inputs": [],
      "name": "authorizer",
      "outputs": [
        {
          "name": "",
          "type": "address"
        }
      ],
      "payable": false,
      "stateMutability": "view",
      "type": "function"
    },
    {
      "constant": false,
      "inputs": [
        {
          "name": "_beneficiary",
          "type": "address"
        },
        {
          "name": "_amount",
          "type": "uint256"
        }
      ],
      "name": "lockupTokens",
      "outputs": [],
      "payable": false,
      "stateMutability": "nonpayable",
      "type": "function"
    },
    {
      "constant": false,
      "inputs": [
        {
          "name": "_beneficiary",
          "type": "address"
        }
      ],
      "name": "buyTokens",
      "outputs": [],
      "payable": true,
      "stateMutability": "payable",
      "type": "function"
    },
    {
      "constant": true,
      "inputs": [],
      "name": "hasEnded",
      "outputs": [
        {
          "name": "",
          "type": "bool"
        }
      ],
      "payable": false,
      "stateMutability": "view",
      "type": "function"
    },
    {
      "constant": false,
      "inputs": [
        {
          "name": "newOwner",
          "type": "address"
        }
      ],
      "name": "transferOwnership",
      "outputs": [],
      "payable": false,
      "stateMutability": "nonpayable",
      "type": "function"
    },
    {
      "constant": false,
      "inputs": [],
      "name": "unlockTokens",
      "outputs": [
        {
          "name": "_didIssueRewards",
          "type": "bool"
        }
      ],
      "payable": false,
      "stateMutability": "nonpayable",
      "type": "function"
    },
    {
      "constant": true,
      "inputs": [],
      "name": "token",
      "outputs": [
        {
          "name": "",
          "type": "address"
        }
      ],
      "payable": false,
      "stateMutability": "view",
      "type": "function"
    },
    {
      "inputs": [
        {
          "name": "_cap",
          "type": "uint256"
        },
        {
          "name": "_minWei",
          "type": "uint256"
        },
        {
          "name": "_maxWei",
          "type": "uint256"
        },
        {
          "name": "_startTime",
          "type": "uint256"
        },
        {
          "name": "_endTime",
          "type": "uint256"
        },
        {
          "name": "_rate",
          "type": "uint256"
        },
        {
          "name": "_ownerRate",
          "type": "uint256"
        },
        {
          "name": "_bonusRate",
          "type": "uint256"
        },
        {
          "name": "_wallet",
          "type": "address"
        }
      ],
      "payable": false,
      "stateMutability": "nonpayable",
      "type": "constructor"
    },
    {
      "payable": true,
      "stateMutability": "payable",
      "type": "fallback"
    },
    {
      "anonymous": false,
      "inputs": [],
      "name": "Finalized",
      "type": "event"
    },
    {
      "anonymous": false,
      "inputs": [
        {
          "indexed": true,
          "name": "previousOwner",
          "type": "address"
        },
        {
          "indexed": true,
          "name": "newOwner",
          "type": "address"
        }
      ],
      "name": "OwnershipTransferred",
      "type": "event"
    },
    {
      "anonymous": false,
      "inputs": [
        {
          "indexed": true,
          "name": "purchaser",
          "type": "address"
        },
        {
          "indexed": true,
          "name": "beneficiary",
          "type": "address"
        },
        {
          "indexed": false,
          "name": "value",
          "type": "uint256"
        },
        {
          "indexed": false,
          "name": "amount",
          "type": "uint256"
        }
      ],
      "name": "TokenPurchase",
      "type": "event"
    }
  ],
  "bytecode": "0x60606040526000600660146101000a81548160ff02191690831515021790555034156200002b57600080fd5b60405161012080620021b18339810160405280805190602001909190805190602001909190805190602001909190805190602001909190805190602001909190805190602001909190805190602001909190805190602001909190805190602001909190505085858583428410151515620000a557600080fd5b838310151515620000b557600080fd5b600082111515620000c557600080fd5b600073ffffffffffffffffffffffffffffffffffffffff168173ffffffffffffffffffffffffffffffffffffffff16141515156200010257600080fd5b620001206200023c6401000000000262001f29176401000000009004565b6000806101000a81548173ffffffffffffffffffffffffffffffffffffffff021916908373ffffffffffffffffffffffffffffffffffffffff16021790555083600181905550826002819055508160048190555080600360006101000a81548173ffffffffffffffffffffffffffffffffffffffff021916908373ffffffffffffffffffffffffffffffffffffffff1602179055505050505033600660006101000a81548173ffffffffffffffffffffffffffffffffffffffff021916908373ffffffffffffffffffffffffffffffffffffffff1602179055506000891115156200020a57600080fd5b88600781905550876008819055508660098190555082600a8190555081600b8190555050505050505050505062000244565b600080905090565b611f5d80620002546000396000f30060606040526004361061016a576000357c0100000000000000000000000000000000000000000000000000000000900463ffffffff16806303ed9d2114610175578063058a628f1461019857806306490f47146101d15780630b745a0114610226578063144fa6d71461025f5780632c4e722e146102985780633197cbb6146102c1578063355274ea146102ea5780634042b66f1461031357806344691f7e1461033c5780634bb278f314610369578063521eb2731461037e5780635af123f4146103d3578063688cdba8146103fc57806378e979251461042557806386ce02851461044e5780638d3d6576146104905780638d4e4083146104b95780638da5cb5b146104e6578063aaffadf31461053b578063ccb98ffc14610564578063d09edf3114610587578063eb3a88dc146105dc578063ec8ac4d81461061e578063ecb70fb71461064c578063f2fde38b14610679578063f968f493146106b2578063fc0c546a146106df575b61017333610734565b005b341561018057600080fd5b6101966004808035906020019091905050610864565b005b34156101a357600080fd5b6101cf600480803573ffffffffffffffffffffffffffffffffffffffff169060200190919050506108ca565b005b34156101dc57600080fd5b6101e461097e565b604051808273ffffffffffffffffffffffffffffffffffffffff1673ffffffffffffffffffffffffffffffffffffffff16815260200191505060405180910390f35b341561023157600080fd5b61025d600480803573ffffffffffffffffffffffffffffffffffffffff169060200190919050506109a4565b005b341561026a57600080fd5b610296600480803573ffffffffffffffffffffffffffffffffffffffff16906020019091905050610a58565b005b34156102a357600080fd5b6102ab610b0b565b6040518082815260200191505060405180910390f35b34156102cc57600080fd5b6102d4610b11565b6040518082815260200191505060405180910390f35b34156102f557600080fd5b6102fd610b17565b6040518082815260200191505060405180910390f35b341561031e57600080fd5b610326610b1d565b6040518082815260200191505060405180910390f35b341561034757600080fd5b61034f610b23565b604051808215151515815260200191505060405180910390f35b341561037457600080fd5b61037c610b2f565b005b341561038957600080fd5b610391610c0b565b604051808273ffffffffffffffffffffffffffffffffffffffff1673ffffffffffffffffffffffffffffffffffffffff16815260200191505060405180910390f35b34156103de57600080fd5b6103e6610c31565b6040518082815260200191505060405180910390f35b341561040757600080fd5b61040f610c37565b6040518082815260200191505060405180910390f35b341561043057600080fd5b610438610c3d565b6040518082815260200191505060405180910390f35b341561045957600080fd5b61048e600480803573ffffffffffffffffffffffffffffffffffffffff16906020019091908035906020019091905050610c43565b005b341561049b57600080fd5b6104a3610e49565b6040518082815260200191505060405180910390f35b34156104c457600080fd5b6104cc610e4f565b604051808215151515815260200191505060405180910390f35b34156104f157600080fd5b6104f9610e62565b604051808273ffffffffffffffffffffffffffffffffffffffff1673ffffffffffffffffffffffffffffffffffffffff16815260200191505060405180910390f35b341561054657600080fd5b61054e610e88565b6040518082815260200191505060405180910390f35b341561056f57600080fd5b6105856004808035906020019091905050610e8e565b005b341561059257600080fd5b61059a610ef4565b604051808273ffffffffffffffffffffffffffffffffffffffff1673ffffffffffffffffffffffffffffffffffffffff16815260200191505060405180910390f35b34156105e757600080fd5b61061c600480803573ffffffffffffffffffffffffffffffffffffffff16906020019091908035906020019091905050610f1a565b005b61064a600480803573ffffffffffffffffffffffffffffffffffffffff16906020019091905050610734565b005b341561065757600080fd5b61065f6113ba565b604051808215151515815260200191505060405180910390f35b341561068457600080fd5b6106b0600480803573ffffffffffffffffffffffffffffffffffffffff169060200190919050506113dd565b005b34156106bd57600080fd5b6106c5611535565b604051808215151515815260200191505060405180910390f35b34156106ea57600080fd5b6106f26118d9565b604051808273ffffffffffffffffffffffffffffffffffffffff1673ffffffffffffffffffffffffffffffffffffffff16815260200191505060405180910390f35b600061073f826118fe565b610754600a5434611ae790919063ffffffff16565b90506000809054906101000a900473ffffffffffffffffffffffffffffffffffffffff1673ffffffffffffffffffffffffffffffffffffffff166340c10f19600360009054906101000a900473ffffffffffffffffffffffffffffffffffffffff16836000604051602001526040518363ffffffff167c0100000000000000000000000000000000000000000000000000000000028152600401808373ffffffffffffffffffffffffffffffffffffffff1673ffffffffffffffffffffffffffffffffffffffff16815260200182815260200192505050602060405180830381600087803b151561084457600080fd5b6102c65a03f1151561085557600080fd5b50505060405180519050505050565b600660009054906101000a900473ffffffffffffffffffffffffffffffffffffffff1673ffffffffffffffffffffffffffffffffffffffff163373ffffffffffffffffffffffffffffffffffffffff161415156108c057600080fd5b8060098190555050565b600660009054906101000a900473ffffffffffffffffffffffffffffffffffffffff1673ffffffffffffffffffffffffffffffffffffffff163373ffffffffffffffffffffffffffffffffffffffff1614151561092657600080fd5b61092e610b23565b15151561093a57600080fd5b80600c60006101000a81548173ffffffffffffffffffffffffffffffffffffffff021916908373ffffffffffffffffffffffffffffffffffffffff16021790555050565b600d60009054906101000a900473ffffffffffffffffffffffffffffffffffffffff1681565b600660009054906101000a900473ffffffffffffffffffffffffffffffffffffffff1673ffffffffffffffffffffffffffffffffffffffff163373ffffffffffffffffffffffffffffffffffffffff16141515610a0057600080fd5b610a08610b23565b151515610a1457600080fd5b80600d60006101000a81548173ffffffffffffffffffffffffffffffffffffffff021916908373ffffffffffffffffffffffffffffffffffffffff16021790555050565b600660009054906101000a900473ffffffffffffffffffffffffffffffffffffffff1673ffffffffffffffffffffffffffffffffffffffff163373ffffffffffffffffffffffffffffffffffffffff16141515610ab457600080fd5b610abc610b23565b151515610ac857600080fd5b806000806101000a81548173ffffffffffffffffffffffffffffffffffffffff021916908373ffffffffffffffffffffffffffffffffffffffff16021790555050565b60045481565b60025481565b60075481565b60055481565b60006001544211905090565b600660009054906101000a900473ffffffffffffffffffffffffffffffffffffffff1673ffffffffffffffffffffffffffffffffffffffff163373ffffffffffffffffffffffffffffffffffffffff16141515610b8b57600080fd5b600660149054906101000a900460ff16151515610ba757600080fd5b610baf6113ba565b1515610bba57600080fd5b610bc2611b22565b7f6823b073d48d6e3a7d385eeb601452d680e74bb46afe3255a7d778f3a9b1768160405160405180910390a16001600660146101000a81548160ff021916908315150217905550565b600360009054906101000a900473ffffffffffffffffffffffffffffffffffffffff1681565b600b5481565b600a5481565b60015481565b6000600660009054906101000a900473ffffffffffffffffffffffffffffffffffffffff1673ffffffffffffffffffffffffffffffffffffffff163373ffffffffffffffffffffffffffffffffffffffff16141515610ca157600080fd5b600660149054906101000a900460ff16151515610cbd57600080fd5b610cd260045483611bde90919063ffffffff16565b9050610ce981600554611bf990919063ffffffff16565b6005819055506000809054906101000a900473ffffffffffffffffffffffffffffffffffffffff1673ffffffffffffffffffffffffffffffffffffffff166340c10f1984846000604051602001526040518363ffffffff167c0100000000000000000000000000000000000000000000000000000000028152600401808373ffffffffffffffffffffffffffffffffffffffff1673ffffffffffffffffffffffffffffffffffffffff16815260200182815260200192505050602060405180830381600087803b1515610dbb57600080fd5b6102c65a03f11515610dcc57600080fd5b50505060405180519050508273ffffffffffffffffffffffffffffffffffffffff163373ffffffffffffffffffffffffffffffffffffffff167f623b3804fa71d67900d064613da8f94b9617215ee90799290593e1745087ad188385604051808381526020018281526020019250505060405180910390a3505050565b60095481565b600660149054906101000a900460ff1681565b600660009054906101000a900473ffffffffffffffffffffffffffffffffffffffff1681565b60085481565b600660009054906101000a900473ffffffffffffffffffffffffffffffffffffffff1673ffffffffffffffffffffffffffffffffffffffff163373ffffffffffffffffffffffffffffffffffffffff16141515610eea57600080fd5b8060028190555050565b600c60009054906101000a900473ffffffffffffffffffffffffffffffffffffffff1681565b6000806000600660009054906101000a900473ffffffffffffffffffffffffffffffffffffffff1673ffffffffffffffffffffffffffffffffffffffff163373ffffffffffffffffffffffffffffffffffffffff16141515610f7b57600080fd5b600660149054906101000a900460ff16151515610f9757600080fd5b610fc0600454610fb286600a54611ae790919063ffffffff16565b611bde90919063ffffffff16565b92506000809054906101000a900473ffffffffffffffffffffffffffffffffffffffff1673ffffffffffffffffffffffffffffffffffffffff166340c10f19600360009054906101000a900473ffffffffffffffffffffffffffffffffffffffff16856000604051602001526040518363ffffffff167c0100000000000000000000000000000000000000000000000000000000028152600401808373ffffffffffffffffffffffffffffffffffffffff1673ffffffffffffffffffffffffffffffffffffffff16815260200182815260200192505050602060405180830381600087803b15156110b057600080fd5b6102c65a03f115156110c157600080fd5b50505060405180519050506110f460646110e686600b54611ae790919063ffffffff16565b611bde90919063ffffffff16565b9150600d60009054906101000a900473ffffffffffffffffffffffffffffffffffffffff1673ffffffffffffffffffffffffffffffffffffffff16636dc0a99786846040518363ffffffff167c0100000000000000000000000000000000000000000000000000000000028152600401808373ffffffffffffffffffffffffffffffffffffffff1673ffffffffffffffffffffffffffffffffffffffff16815260200182815260200192505050600060405180830381600087803b15156111ba57600080fd5b6102c65a03f115156111cb57600080fd5b5050506000809054906101000a900473ffffffffffffffffffffffffffffffffffffffff1673ffffffffffffffffffffffffffffffffffffffff166340c10f1930846000604051602001526040518363ffffffff167c0100000000000000000000000000000000000000000000000000000000028152600401808373ffffffffffffffffffffffffffffffffffffffff1673ffffffffffffffffffffffffffffffffffffffff16815260200182815260200192505050602060405180830381600087803b151561129a57600080fd5b6102c65a03f115156112ab57600080fd5b50505060405180519050506112c98285611c1790919063ffffffff16565b90506000809054906101000a900473ffffffffffffffffffffffffffffffffffffffff1673ffffffffffffffffffffffffffffffffffffffff166340c10f1986836000604051602001526040518363ffffffff167c0100000000000000000000000000000000000000000000000000000000028152600401808373ffffffffffffffffffffffffffffffffffffffff1673ffffffffffffffffffffffffffffffffffffffff16815260200182815260200192505050602060405180830381600087803b151561139757600080fd5b6102c65a03f115156113a857600080fd5b50505060405180519050505050505050565b600080600754600554101590506113cf611c30565b806113d75750805b91505090565b600660009054906101000a900473ffffffffffffffffffffffffffffffffffffffff1673ffffffffffffffffffffffffffffffffffffffff163373ffffffffffffffffffffffffffffffffffffffff1614151561143957600080fd5b600073ffffffffffffffffffffffffffffffffffffffff168173ffffffffffffffffffffffffffffffffffffffff161415151561147557600080fd5b8073ffffffffffffffffffffffffffffffffffffffff16600660009054906101000a900473ffffffffffffffffffffffffffffffffffffffff1673ffffffffffffffffffffffffffffffffffffffff167f8be0079c531659141344cd1fd0a4f28419497f9722a3daafe3b4186f6b6457e060405160405180910390a380600660006101000a81548173ffffffffffffffffffffffffffffffffffffffff021916908373ffffffffffffffffffffffffffffffffffffffff16021790555050565b600080600080600080600660009054906101000a900473ffffffffffffffffffffffffffffffffffffffff1673ffffffffffffffffffffffffffffffffffffffff163373ffffffffffffffffffffffffffffffffffffffff1614151561159a57600080fd5b600d60009054906101000a900473ffffffffffffffffffffffffffffffffffffffff1673ffffffffffffffffffffffffffffffffffffffff1663f95e63066000604051602001526040518163ffffffff167c0100000000000000000000000000000000000000000000000000000000028152600401602060405180830381600087803b151561162857600080fd5b6102c65a03f1151561163957600080fd5b50505060405180519050151561165257600095506118d1565b600d60009054906101000a900473ffffffffffffffffffffffffffffffffffffffff1673ffffffffffffffffffffffffffffffffffffffff16633a2960e16000604051602001526040518163ffffffff167c0100000000000000000000000000000000000000000000000000000000028152600401602060405180830381600087803b15156116e057600080fd5b6102c65a03f115156116f157600080fd5b505050604051805190509450600093505b848410156118cc57600d60009054906101000a900473ffffffffffffffffffffffffffffffffffffffff1673ffffffffffffffffffffffffffffffffffffffff16636198e339856000604051606001526040518263ffffffff167c010000000000000000000000000000000000000000000000000000000002815260040180828152602001915050606060405180830381600087803b15156117a357600080fd5b6102c65a03f115156117b457600080fd5b5050506040518051906020018051906020018051905092509250925082156118bf576000809054906101000a900473ffffffffffffffffffffffffffffffffffffffff1673ffffffffffffffffffffffffffffffffffffffff1663a9059cbb83836000604051602001526040518363ffffffff167c0100000000000000000000000000000000000000000000000000000000028152600401808373ffffffffffffffffffffffffffffffffffffffff1673ffffffffffffffffffffffffffffffffffffffff16815260200182815260200192505050602060405180830381600087803b15156118a257600080fd5b6102c65a03f115156118b357600080fd5b50505060405180519050505b8380600101945050611702565b600195505b505050505090565b6000809054906101000a900473ffffffffffffffffffffffffffffffffffffffff1681565b600080600073ffffffffffffffffffffffffffffffffffffffff168373ffffffffffffffffffffffffffffffffffffffff161415151561193d57600080fd5b611945611c3c565b151561195057600080fd5b34915061196860045483611ae790919063ffffffff16565b905061197f82600554611bf990919063ffffffff16565b6005819055506000809054906101000a900473ffffffffffffffffffffffffffffffffffffffff1673ffffffffffffffffffffffffffffffffffffffff166340c10f1984836000604051602001526040518363ffffffff167c0100000000000000000000000000000000000000000000000000000000028152600401808373ffffffffffffffffffffffffffffffffffffffff1673ffffffffffffffffffffffffffffffffffffffff16815260200182815260200192505050602060405180830381600087803b1515611a5157600080fd5b6102c65a03f11515611a6257600080fd5b50505060405180519050508273ffffffffffffffffffffffffffffffffffffffff163373ffffffffffffffffffffffffffffffffffffffff167f623b3804fa71d67900d064613da8f94b9617215ee90799290593e1745087ad188484604051808381526020018281526020019250505060405180910390a3611ae2611e90565b505050565b6000806000841415611afc5760009150611b1b565b8284029050828482811515611b0d57fe5b04141515611b1757fe5b8091505b5092915050565b6000809054906101000a900473ffffffffffffffffffffffffffffffffffffffff1673ffffffffffffffffffffffffffffffffffffffff16637d64bcb46000604051602001526040518163ffffffff167c0100000000000000000000000000000000000000000000000000000000028152600401602060405180830381600087803b1515611baf57600080fd5b6102c65a03f11515611bc057600080fd5b5050506040518051905050611bd3611535565b50611bdc611ef4565b565b6000808284811515611bec57fe5b0490508091505092915050565b6000808284019050838110151515611c0d57fe5b8091505092915050565b6000828211151515611c2557fe5b818303905092915050565b60006002544211905090565b600080600080600080600754611c5d34600554611bf990919063ffffffff16565b11159450600c60009054906101000a900473ffffffffffffffffffffffffffffffffffffffff1673ffffffffffffffffffffffffffffffffffffffff1663fe9fbb80336000604051602001526040518263ffffffff167c0100000000000000000000000000000000000000000000000000000000028152600401808273ffffffffffffffffffffffffffffffffffffffff1673ffffffffffffffffffffffffffffffffffffffff168152602001915050602060405180830381600087803b1515611d2657600080fd5b6102c65a03f11515611d3757600080fd5b5050506040518051905093506008543410159250611e3e6004546000809054906101000a900473ffffffffffffffffffffffffffffffffffffffff1673ffffffffffffffffffffffffffffffffffffffff166370a08231336000604051602001526040518263ffffffff167c0100000000000000000000000000000000000000000000000000000000028152600401808273ffffffffffffffffffffffffffffffffffffffff1673ffffffffffffffffffffffffffffffffffffffff168152602001915050602060405180830381600087803b1515611e1557600080fd5b6102c65a03f11515611e2657600080fd5b50505060405180519050611bde90919063ffffffff16565b9150600954611e568334611bf990919063ffffffff16565b11159050611e62611ef6565b8015611e6b5750845b8015611e745750835b8015611e7d5750825b8015611e865750805b9550505050505090565b600360009054906101000a900473ffffffffffffffffffffffffffffffffffffffff1673ffffffffffffffffffffffffffffffffffffffff166108fc349081150290604051600060405180830381858888f193505050501515611ef257600080fd5b565b565b60008060006001544210158015611f0f57506002544211155b915060003414159050818015611f225750805b9250505090565b6000809050905600a165627a7a72305820502c1e6cfeffdbfe793d3a1c2b9dea0625c6a0644300134410e47dee856d2ba70029",
  "source": "pragma solidity ^0.4.18;\n\nimport \"./BRDToken.sol\";\nimport \"./BRDCrowdsaleAuthorizer.sol\";\nimport \"./BRDLockup.sol\";\nimport \"./zeppelin-solidity-1.4/Crowdsale.sol\";\nimport \"./zeppelin-solidity-1.4/FinalizableCrowdsale.sol\";\nimport \"./zeppelin-solidity-1.4/MintableToken.sol\";\nimport \"./zeppelin-solidity-1.4/SafeMath.sol\";\n\n\ncontract BRDCrowdsale is FinalizableCrowdsale {\n  using SafeMath for uint256;\n\n  // maximum amount of wei raised during this crowdsale\n  uint256 public cap;\n\n  // minimum per-participant wei contribution\n  uint256 public minContribution;\n\n  // maximum per-participant wei contribution\n  uint256 public maxContribution;\n\n  // how many token unites the owner gets per buyer wei\n  uint256 public ownerRate;\n\n  // number of tokens per 100 to lock up in lockupTokens()\n  uint256 public bonusRate;\n\n  // crowdsale authorizer contract determines who can participate\n  BRDCrowdsaleAuthorizer public authorizer;\n\n  // the lockup contract holds presale authorization amounts\n  BRDLockup public lockup;\n\n  // constructor\n  function BRDCrowdsale(\n    uint256 _cap,         // maximum wei raised\n    uint256 _minWei,      // minimum per-contributor wei\n    uint256 _maxWei,      // maximum per-contributor wei\n    uint256 _startTime,   // crowdsale start time\n    uint256 _endTime,     // crowdsale end time\n    uint256 _rate,        // tokens per wei\n    uint256 _ownerRate,   // owner tokens per buyer wei\n    uint256 _bonusRate,   // percentage of tokens to lockup\n    address _wallet)      // target funds wallet\n    Crowdsale(_startTime, _endTime, _rate, _wallet)\n   public\n  {\n    require(_cap > 0);\n    cap = _cap;\n    minContribution = _minWei;\n    maxContribution = _maxWei;\n    ownerRate = _ownerRate;\n    bonusRate = _bonusRate;\n  }\n\n  // overriding Crowdsale#hasEnded to add cap logic\n  // @return true if crowdsale event has ended\n  function hasEnded() public constant returns (bool) {\n    bool _capReached = weiRaised >= cap;\n    return super.hasEnded() || _capReached;\n  }\n\n  // @return true if the crowdsale has started\n  function hasStarted() public constant returns (bool) {\n    return now > startTime;\n  }\n\n  // overriding Crowdsale#buyTokens\n  // mints the ownerRate of tokens in addition to calling the super method\n  function buyTokens(address _beneficiary) public payable {\n    // call the parent method to mint tokens to the beneficiary\n    super.buyTokens(_beneficiary);\n    // calculate the owner share of tokens\n    uint256 _ownerTokens = msg.value.mul(ownerRate);\n    // mint the owner share and send to the owner wallet\n    token.mint(wallet, _ownerTokens);\n  }\n\n  // immediately mint _amount tokens to the _beneficiary. this is used for OOB token purchases. \n  function allocateTokens(address _beneficiary, uint256 _amount) onlyOwner public {\n    require(!isFinalized);\n\n    // update state\n    uint256 _weiAmount = _amount.div(rate);\n    weiRaised = weiRaised.add(_weiAmount);\n\n    // mint the tokens to the beneficiary\n    token.mint(_beneficiary, _amount);\n    \n    TokenPurchase(msg.sender, _beneficiary, _weiAmount, _amount);\n  }\n\n  // mints _amount tokens to the _beneficiary minus the bonusRate\n  // tokens to be locked up via the lockup contract. locked up tokens\n  // are sent to the contract and may be unlocked according to\n  // the lockup configuration after the sale ends\n  function lockupTokens(address _beneficiary, uint256 _amount) onlyOwner public {\n    require(!isFinalized);\n\n    // calculate the owner share of tokens\n    uint256 _ownerTokens = ownerRate.mul(_amount).div(rate);\n    // mint the owner share and send to the owner wallet\n    token.mint(wallet, _ownerTokens);\n\n    // calculate the amount of tokens to be locked up\n    uint256 _lockupTokens = bonusRate.mul(_amount).div(100);\n    // create the locked allocation in the lockup contract\n    lockup.pushAllocation(_beneficiary, _lockupTokens);\n    // mint locked tokens to the crowdsale contract to later be unlocked\n    token.mint(this, _lockupTokens);\n\n    // the non-bonus tokens are immediately rewarded\n    uint256 _remainder = _amount.sub(_lockupTokens);\n    token.mint(_beneficiary, _remainder);\n  }\n\n  // unlocks tokens from the token lockup contract. no tokens are held by\n  // the lockup contract, just the amounts and times that tokens should be rewarded.\n  // the tokens are held by the crowdsale contract\n  function unlockTokens() onlyOwner public returns (bool _didIssueRewards) {\n    // attempt to process the interval. it update the allocation bookkeeping\n    // and will only return true when the interval should be processed\n    if (!lockup.processInterval())\n      return false;\n\n    // the total number of allocations\n    uint _numAllocations = lockup.numAllocations();\n\n    // for every allocation, attempt to unlock the reward\n    for (uint _i = 0; _i < _numAllocations; _i++) {\n      // attempt to unlock the reward\n      var (_shouldReward, _to, _amount) = lockup.unlock(_i);\n      // if the beneficiary should be rewarded, send them tokens\n      if (_shouldReward) {\n        token.transfer(_to, _amount);\n      }\n    }\n\n    return true;\n  }\n\n  // sets the authorizer contract if the crowdsale hasn't started\n  function setAuthorizer(BRDCrowdsaleAuthorizer _authorizer) onlyOwner public {\n    require(!hasStarted());\n    authorizer = _authorizer;\n  }\n\n  // sets the lockup contract if the crowdsale hasn't started\n  function setLockup(BRDLockup _lockup) onlyOwner public {\n    require(!hasStarted());\n    lockup = _lockup;\n  }\n\n  // sets the token contract if the crowdsale hasn't started\n  function setToken(BRDToken _token) onlyOwner public {\n    require(!hasStarted());\n    token = _token;\n  }\n\n  // allows maxContribution to be modified\n  function setMaxContribution(uint256 _newMaxContribution) onlyOwner public {\n    maxContribution = _newMaxContribution;\n  }\n\n  // allows endTime to be modified\n  function setEndTime(uint256 _newEndTime) onlyOwner public {\n    endTime = _newEndTime;\n  }\n\n  // overriding Crowdsale#createTokenContract\n  function createTokenContract() internal returns (MintableToken) {\n    // set the token to null initially\n    // call setToken() above to set the actual token address\n    return BRDToken(address(0));\n  }\n\n  // overriding FinalizableCrowdsale#finalization\n  // finalizes minting for the token contract, disabling further minting\n  function finalization() internal {\n    // end minting\n    token.finishMinting();\n\n    // issue the first lockup reward\n    unlockTokens();\n\n    super.finalization();\n  }\n\n  // overriding Crowdsale#validPurchase to add extra cap logic\n  // @return true if crowdsale participants can buy at the moment\n  // checks whether the cap has not been reached, the purchaser has\n  // been authorized, and their contribution is within the min/max\n  // thresholds\n  function validPurchase() internal constant returns (bool) {\n    bool _withinCap = weiRaised.add(msg.value) <= cap;\n    bool _isAuthorized = authorizer.isAuthorized(msg.sender);\n    bool _isMin = msg.value >= minContribution;\n    uint256 _alreadyContributed = token.balanceOf(msg.sender).div(rate);\n    bool _withinMax = msg.value.add(_alreadyContributed) <= maxContribution;\n    return super.validPurchase() && _withinCap && _isAuthorized && _isMin && _withinMax;\n  }\n}\n",
  "sourcePath": "/Users/sam/dev/bread/smart-contracts/contracts/BRDCrowdsale.sol",
  "compiler": {
    "name": "solc",
    "version": "0.4.18+commit.9cf6e910.Emscripten.clang"
  },
  "schemaVersion": "1.0.1",
  "updatedAt": "2017-12-13T08:37:35.609Z"
}