{
  "contractName": "BRDLockup",
  "abi": [
    {
      "constant": true,
      "inputs": [
        {
          "name": "",
          "type": "uint256"
        }
      ],
      "name": "allocations",
      "outputs": [
        {
          "name": "beneficiary",
          "type": "address"
        },
        {
          "name": "allocation",
          "type": "uint256"
        },
        {
          "name": "remainingBalance",
          "type": "uint256"
        },
        {
          "name": "currentInterval",
          "type": "uint256"
        },
        {
          "name": "currentReward",
          "type": "uint256"
        }
      ],
      "payable": false,
      "stateMutability": "view",
      "type": "function"
    },
    {
      "constant": true,
      "inputs": [],
      "name": "intervalDuration",
      "outputs": [
        {
          "name": "",
          "type": "uint256"
        }
      ],
      "payable": false,
      "stateMutability": "view",
      "type": "function"
    },
    {
      "constant": true,
      "inputs": [],
      "name": "currentInterval",
      "outputs": [
        {
          "name": "",
          "type": "uint256"
        }
      ],
      "payable": false,
      "stateMutability": "view",
      "type": "function"
    },
    {
      "constant": true,
      "inputs": [],
      "name": "numAllocations",
      "outputs": [
        {
          "name": "",
          "type": "uint256"
        }
      ],
      "payable": false,
      "stateMutability": "view",
      "type": "function"
    },
    {
      "constant": false,
      "inputs": [
        {
          "name": "_index",
          "type": "uint256"
        }
      ],
      "name": "unlock",
      "outputs": [
        {
          "name": "_shouldReward",
          "type": "bool"
        },
        {
          "name": "_beneficiary",
          "type": "address"
        },
        {
          "name": "_rewardAmount",
          "type": "uint256"
        }
      ],
      "payable": false,
      "stateMutability": "nonpayable",
      "type": "function"
    },
    {
      "constant": true,
      "inputs": [],
      "name": "unlockDate",
      "outputs": [
        {
          "name": "",
          "type": "uint256"
        }
      ],
      "payable": false,
      "stateMutability": "view",
      "type": "function"
    },
    {
      "constant": false,
      "inputs": [
        {
          "name": "_beneficiary",
          "type": "address"
        },
        {
          "name": "_numTokens",
          "type": "uint256"
        }
      ],
      "name": "pushAllocation",
      "outputs": [],
      "payable": false,
      "stateMutability": "nonpayable",
      "type": "function"
    },
    {
      "constant": true,
      "inputs": [],
      "name": "owner",
      "outputs": [
        {
          "name": "",
          "type": "address"
        }
      ],
      "payable": false,
      "stateMutability": "view",
      "type": "function"
    },
    {
      "constant": true,
      "inputs": [
        {
          "name": "_index",
          "type": "uint256"
        }
      ],
      "name": "allocationAmount",
      "outputs": [
        {
          "name": "",
          "type": "uint256"
        }
      ],
      "payable": false,
      "stateMutability": "view",
      "type": "function"
    },
    {
      "constant": true,
      "inputs": [],
      "name": "numIntervals",
      "outputs": [
        {
          "name": "",
          "type": "uint256"
        }
      ],
      "payable": false,
      "stateMutability": "view",
      "type": "function"
    },
    {
      "constant": false,
      "inputs": [
        {
          "name": "newOwner",
          "type": "address"
        }
      ],
      "name": "transferOwnership",
      "outputs": [],
      "payable": false,
      "stateMutability": "nonpayable",
      "type": "function"
    },
    {
      "constant": false,
      "inputs": [],
      "name": "processInterval",
      "outputs": [
        {
          "name": "_shouldProcessRewards",
          "type": "bool"
        }
      ],
      "payable": false,
      "stateMutability": "nonpayable",
      "type": "function"
    },
    {
      "inputs": [
        {
          "name": "_crowdsaleEndDate",
          "type": "uint256"
        },
        {
          "name": "_numIntervals",
          "type": "uint256"
        },
        {
          "name": "_intervalDuration",
          "type": "uint256"
        }
      ],
      "payable": false,
      "stateMutability": "nonpayable",
      "type": "constructor"
    },
    {
      "anonymous": false,
      "inputs": [
        {
          "indexed": true,
          "name": "_to",
          "type": "address"
        },
        {
          "indexed": false,
          "name": "_amount",
          "type": "uint256"
        }
      ],
      "name": "Lock",
      "type": "event"
    },
    {
      "anonymous": false,
      "inputs": [
        {
          "indexed": true,
          "name": "_to",
          "type": "address"
        },
        {
          "indexed": false,
          "name": "_amount",
          "type": "uint256"
        }
      ],
      "name": "Unlock",
      "type": "event"
    },
    {
      "anonymous": false,
      "inputs": [
        {
          "indexed": true,
          "name": "previousOwner",
          "type": "address"
        },
        {
          "indexed": true,
          "name": "newOwner",
          "type": "address"
        }
      ],
      "name": "OwnershipTransferred",
      "type": "event"
    }
  ],
  "bytecode": "0x6060604052341561000f57600080fd5b604051606080610d6783398101604052808051906020019091908051906020019091908051906020019091905050336000806101000a81548173ffffffffffffffffffffffffffffffffffffffff021916908373ffffffffffffffffffffffffffffffffffffffff1602179055508260028190555081600581905550806004819055506000600381905550505050610cbb806100ac6000396000f3006060604052600436106100ba576000357c0100000000000000000000000000000000000000000000000000000000900463ffffffff1680630a2642bf146100bf5780633076dc421461013e578063363487bc146101675780633a2960e1146101905780636198e339146101b957806369ac57211461022e5780636dc0a997146102575780638da5cb5b14610299578063931dab50146102ee578063a31e88c214610325578063f2fde38b1461034e578063f95e630614610387575b600080fd5b34156100ca57600080fd5b6100e060048080359060200190919050506103b4565b604051808673ffffffffffffffffffffffffffffffffffffffff1673ffffffffffffffffffffffffffffffffffffffff1681526020018581526020018481526020018381526020018281526020019550505050505060405180910390f35b341561014957600080fd5b610151610419565b6040518082815260200191505060405180910390f35b341561017257600080fd5b61017a61041f565b6040518082815260200191505060405180910390f35b341561019b57600080fd5b6101a3610425565b6040518082815260200191505060405180910390f35b34156101c457600080fd5b6101da6004808035906020019091905050610432565b60405180841515151581526020018373ffffffffffffffffffffffffffffffffffffffff1673ffffffffffffffffffffffffffffffffffffffff168152602001828152602001935050505060405180910390f35b341561023957600080fd5b610241610683565b6040518082815260200191505060405180910390f35b341561026257600080fd5b610297600480803573ffffffffffffffffffffffffffffffffffffffff16906020019091908035906020019091905050610689565b005b34156102a457600080fd5b6102ac610821565b604051808273ffffffffffffffffffffffffffffffffffffffff1673ffffffffffffffffffffffffffffffffffffffff16815260200191505060405180910390f35b34156102f957600080fd5b61030f6004808035906020019091905050610846565b6040518082815260200191505060405180910390f35b341561033057600080fd5b610338610870565b6040518082815260200191505060405180910390f35b341561035957600080fd5b610385600480803573ffffffffffffffffffffffffffffffffffffffff16906020019091905050610876565b005b341561039257600080fd5b61039a6109cb565b604051808215151515815260200191505060405180910390f35b6001818154811015156103c357fe5b90600052602060002090600502016000915090508060000160009054906101000a900473ffffffffffffffffffffffffffffffffffffffff16908060010154908060020154908060030154908060040154905085565b60045481565b60035481565b6000600180549050905090565b60008060008060009054906101000a900473ffffffffffffffffffffffffffffffffffffffff1673ffffffffffffffffffffffffffffffffffffffff163373ffffffffffffffffffffffffffffffffffffffff1614151561049257600080fd5b6003546001858154811015156104a457fe5b9060005260206000209060050201600301541015610611576003546001858154811015156104ce57fe5b9060005260206000209060050201600301819055506105366001858154811015156104f557fe5b90600052602060002090600502016004015460018681548110151561051657fe5b906000526020600020906005020160020154610b6a90919063ffffffff16565b60018581548110151561054557fe5b90600052602060002090600502016002018190555060018481548110151561056957fe5b906000526020600020906005020160000160009054906101000a900473ffffffffffffffffffffffffffffffffffffffff1673ffffffffffffffffffffffffffffffffffffffff167f6381d9813cabeb57471b5a7e05078e64845ccdb563146a6911d536f24ce960f16001868154811015156105e157fe5b9060005260206000209060050201600401546040518082815260200191505060405180910390a260019250610616565b600092505b60018481548110151561062557fe5b906000526020600020906005020160040154905060018481548110151561064857fe5b906000526020600020906005020160000160009054906101000a900473ffffffffffffffffffffffffffffffffffffffff1691509193909250565b60025481565b6000809054906101000a900473ffffffffffffffffffffffffffffffffffffffff1673ffffffffffffffffffffffffffffffffffffffff163373ffffffffffffffffffffffffffffffffffffffff161415156106e457600080fd5b600254421015156106f457600080fd5b600180548060010182816107089190610bf7565b9160005260206000209060050201600060a0604051908101604052808673ffffffffffffffffffffffffffffffffffffffff168152602001858152602001858152602001600081526020016000815250909190915060008201518160000160006101000a81548173ffffffffffffffffffffffffffffffffffffffff021916908373ffffffffffffffffffffffffffffffffffffffff160217905550602082015181600101556040820151816002015560608201518160030155608082015181600401555050508173ffffffffffffffffffffffffffffffffffffffff167f625fed9875dada8643f2418b838ae0bc78d9a148a18eee4ee1979ff0f3f5d427826040518082815260200191505060405180910390a25050565b6000809054906101000a900473ffffffffffffffffffffffffffffffffffffffff1681565b600060018281548110151561085757fe5b9060005260206000209060050201600101549050919050565b60055481565b6000809054906101000a900473ffffffffffffffffffffffffffffffffffffffff1673ffffffffffffffffffffffffffffffffffffffff163373ffffffffffffffffffffffffffffffffffffffff161415156108d157600080fd5b600073ffffffffffffffffffffffffffffffffffffffff168173ffffffffffffffffffffffffffffffffffffffff161415151561090d57600080fd5b8073ffffffffffffffffffffffffffffffffffffffff166000809054906101000a900473ffffffffffffffffffffffffffffffffffffffff1673ffffffffffffffffffffffffffffffffffffffff167f8be0079c531659141344cd1fd0a4f28419497f9722a3daafe3b4186f6b6457e060405160405180910390a3806000806101000a81548173ffffffffffffffffffffffffffffffffffffffff021916908373ffffffffffffffffffffffffffffffffffffffff16021790555050565b6000806000806000806000809054906101000a900473ffffffffffffffffffffffffffffffffffffffff1673ffffffffffffffffffffffffffffffffffffffff163373ffffffffffffffffffffffffffffffffffffffff16141515610a2f57600080fd5b6002544210158015610a6a5750610a53600454600354610b8390919063ffffffff16565b610a6860025442610b6a90919063ffffffff16565b115b9450600554600354109350841580610a80575083155b15610a8e5760009550610b62565b610aa46001600354610bbe90919063ffffffff16565b6003819055506001805490509250600091505b82821015610b5d576005546003541415610af357600182815481101515610ada57fe5b9060005260206000209060050201600201549050610b2b565b610b28600554600184815481101515610b0857fe5b906000526020600020906005020160010154610bdc90919063ffffffff16565b90505b80600183815481101515610b3b57fe5b9060005260206000209060050201600401819055508180600101925050610ab7565b600195505b505050505090565b6000828211151515610b7857fe5b818303905092915050565b6000806000841415610b985760009150610bb7565b8284029050828482811515610ba957fe5b04141515610bb357fe5b8091505b5092915050565b6000808284019050838110151515610bd257fe5b8091505092915050565b6000808284811515610bea57fe5b0490508091505092915050565b815481835581811511610c2457600502816005028360005260206000209182019101610c239190610c29565b5b505050565b610c8c91905b80821115610c8857600080820160006101000a81549073ffffffffffffffffffffffffffffffffffffffff0219169055600182016000905560028201600090556003820160009055600482016000905550600501610c2f565b5090565b905600a165627a7a723058209c0bb124677d934c4dd6880d0a12d08184f38712da4f338ce08a7038c258a38e0029",
  "source": "pragma solidity ^0.4.18;\n\nimport \"./zeppelin-solidity-1.4/Ownable.sol\";\nimport \"./zeppelin-solidity-1.4/SafeMath.sol\";\n\n\n/**\n * Contract BRDLockup keeps track of a vesting schedule for pre-sold tokens.\n * Pre-sold tokens are rewarded up to `numIntervals` times separated by an\n * `interval` of time. An equal amount of tokens (`allocation` divided by `numIntervals`)\n * is marked for reward each `interval`.\n *\n * The owner of the contract will call processInterval() which will\n * update the allocation state. The owner of the contract should then\n * read the allocation data and reward the beneficiaries.\n */\ncontract BRDLockup is Ownable {\n  using SafeMath for uint256;\n\n  // Allocation stores info about how many tokens to reward a beneficiary account\n  struct Allocation {\n    address beneficiary;      // account to receive rewards\n    uint256 allocation;       // total allocated tokens\n    uint256 remainingBalance; // remaining balance after the current interval\n    uint256 currentInterval;  // the current interval for the given reward\n    uint256 currentReward;    // amount to be rewarded during the current interval\n  }\n\n  // the allocation state\n  Allocation[] public allocations;\n\n  // the date at which allocations begin unlocking\n  uint256 public unlockDate;\n\n  // the current unlock interval\n  uint256 public currentInterval;\n\n  // the interval at which allocations will be rewarded\n  uint256 public intervalDuration;\n\n  // the number of total reward intervals, zero indexed\n  uint256 public numIntervals;\n\n  event Lock(address indexed _to, uint256 _amount);\n\n  event Unlock(address indexed _to, uint256 _amount);\n\n  // constructor\n  // @param _crowdsaleEndDate - the date the crowdsale ends\n  function BRDLockup(uint256 _crowdsaleEndDate, uint256 _numIntervals, uint256 _intervalDuration)  public {\n    unlockDate = _crowdsaleEndDate;\n    numIntervals = _numIntervals;\n    intervalDuration = _intervalDuration;\n    currentInterval = 0;\n  }\n\n  // update the allocation storage remaining balances\n  function processInterval() onlyOwner public returns (bool _shouldProcessRewards) {\n    // ensure the time interval is correct\n    bool _correctInterval = now >= unlockDate && now.sub(unlockDate) > currentInterval.mul(intervalDuration);\n    bool _validInterval = currentInterval < numIntervals;\n    if (!_correctInterval || !_validInterval)\n      return false;\n\n    // advance the current interval\n    currentInterval = currentInterval.add(1);\n\n    // number of iterations to read all allocations\n    uint _allocationsIndex = allocations.length;\n\n    // loop through every allocation\n    for (uint _i = 0; _i < _allocationsIndex; _i++) {\n      // the current reward for the allocation at index `i`\n      uint256 _amountToReward;\n\n      // if we are at the last interval, the reward amount is the entire remaining balance\n      if (currentInterval == numIntervals) {\n        _amountToReward = allocations[_i].remainingBalance;\n      } else {\n        // otherwise the reward amount is the total allocation divided by the number of intervals\n        _amountToReward = allocations[_i].allocation.div(numIntervals);\n      }\n      // update the allocation storage\n      allocations[_i].currentReward = _amountToReward;\n    }\n\n    return true;\n  }\n\n  // the total number of allocations\n  function numAllocations() constant public returns (uint) {\n    return allocations.length;\n  }\n\n  // the amount allocated for beneficiary at `_index`\n  function allocationAmount(uint _index) constant public returns (uint256) {\n    return allocations[_index].allocation;\n  }\n\n  // reward the beneficiary at `_index`\n  function unlock(uint _index) onlyOwner public returns (bool _shouldReward, address _beneficiary, uint256 _rewardAmount) {\n    // ensure the beneficiary is not rewarded twice during the same interval\n    if (allocations[_index].currentInterval < currentInterval) {\n      // record the currentInterval so the above check is useful\n      allocations[_index].currentInterval = currentInterval;\n      // subtract the reward from their remaining balance\n      allocations[_index].remainingBalance = allocations[_index].remainingBalance.sub(allocations[_index].currentReward);\n      // emit event\n      Unlock(allocations[_index].beneficiary, allocations[_index].currentReward);\n      // return value\n      _shouldReward = true;\n    } else {\n      // return value\n      _shouldReward = false;\n    }\n\n    // return values\n    _rewardAmount = allocations[_index].currentReward;\n    _beneficiary = allocations[_index].beneficiary;\n  }\n\n  // add a new allocation to the lockup\n  function pushAllocation(address _beneficiary, uint256 _numTokens) onlyOwner public {\n    require(now < unlockDate);\n    allocations.push(\n      Allocation(\n        _beneficiary,\n        _numTokens,\n        _numTokens,\n        0,\n        0\n      )\n    );\n    Lock(_beneficiary, _numTokens);\n  }\n}\n",
  "sourcePath": "/Users/sam/dev/bread/smart-contracts/contracts/BRDLockup.sol",
  "compiler": {
    "name": "solc",
    "version": "0.4.18+commit.9cf6e910.Emscripten.clang"
  },
  "schemaVersion": "1.0.1",
  "updatedAt": "2017-12-07T18:48:52.309Z"
}