{
  "contractName": "BRDVendingMachine",
  "abi": [
    {
      "constant": true,
      "inputs": [],
      "name": "owner",
      "outputs": [
        {
          "name": "",
          "type": "address"
        }
      ],
      "payable": false,
      "stateMutability": "view",
      "type": "function"
    },
    {
      "constant": false,
      "inputs": [
        {
          "name": "newOwner",
          "type": "address"
        }
      ],
      "name": "transferOwnership",
      "outputs": [],
      "payable": false,
      "stateMutability": "nonpayable",
      "type": "function"
    },
    {
      "constant": true,
      "inputs": [],
      "name": "token",
      "outputs": [
        {
          "name": "",
          "type": "address"
        }
      ],
      "payable": false,
      "stateMutability": "view",
      "type": "function"
    },
    {
      "inputs": [
        {
          "name": "_token",
          "type": "address"
        }
      ],
      "payable": false,
      "stateMutability": "nonpayable",
      "type": "constructor"
    },
    {
      "payable": true,
      "stateMutability": "payable",
      "type": "fallback"
    },
    {
      "anonymous": false,
      "inputs": [
        {
          "indexed": true,
          "name": "_transferID",
          "type": "string"
        },
        {
          "indexed": true,
          "name": "_contract",
          "type": "address"
        },
        {
          "indexed": false,
          "name": "_addresses",
          "type": "address[]"
        },
        {
          "indexed": false,
          "name": "_amounts",
          "type": "uint256[]"
        }
      ],
      "name": "BulkTransfer",
      "type": "event"
    },
    {
      "anonymous": false,
      "inputs": [
        {
          "indexed": true,
          "name": "_contract",
          "type": "address"
        },
        {
          "indexed": true,
          "name": "_to",
          "type": "address"
        },
        {
          "indexed": false,
          "name": "_amount",
          "type": "uint256"
        }
      ],
      "name": "Withdraw",
      "type": "event"
    },
    {
      "anonymous": false,
      "inputs": [
        {
          "indexed": true,
          "name": "previousOwner",
          "type": "address"
        },
        {
          "indexed": true,
          "name": "newOwner",
          "type": "address"
        }
      ],
      "name": "OwnershipTransferred",
      "type": "event"
    },
    {
      "constant": false,
      "inputs": [
        {
          "name": "_transferID",
          "type": "string"
        },
        {
          "name": "_addresses",
          "type": "address[]"
        },
        {
          "name": "_amounts",
          "type": "uint256[]"
        }
      ],
      "name": "bulkTransfer",
      "outputs": [
        {
          "name": "",
          "type": "uint256"
        }
      ],
      "payable": false,
      "stateMutability": "nonpayable",
      "type": "function"
    },
    {
      "constant": false,
      "inputs": [
        {
          "name": "_to",
          "type": "address"
        },
        {
          "name": "_amount",
          "type": "uint256"
        }
      ],
      "name": "withdraw",
      "outputs": [
        {
          "name": "",
          "type": "bool"
        }
      ],
      "payable": false,
      "stateMutability": "nonpayable",
      "type": "function"
    },
    {
      "constant": true,
      "inputs": [],
      "name": "balanceOf",
      "outputs": [
        {
          "name": "",
          "type": "uint256"
        }
      ],
      "payable": false,
      "stateMutability": "view",
      "type": "function"
    }
  ],
  "bytecode": "0x608060405234801561001057600080fd5b50604051602080610c0b83398101806040528101908080519060200190929190505050336000806101000a81548173ffffffffffffffffffffffffffffffffffffffff021916908373ffffffffffffffffffffffffffffffffffffffff16021790555080600160006101000a81548173ffffffffffffffffffffffffffffffffffffffff021916908373ffffffffffffffffffffffffffffffffffffffff16021790555050610b47806100c46000396000f300608060405260043610610078576000357c0100000000000000000000000000000000000000000000000000000000900463ffffffff1680631366e7e814610087578063722713f71461018a5780638da5cb5b146101b5578063f2fde38b1461020c578063f3fef3a31461024f578063fc0c546a146102b4575b6000151561008557600080fd5b005b34801561009357600080fd5b50610174600480360381019080803590602001908201803590602001908080601f0160208091040260200160405190810160405280939291908181526020018383808284378201915050505050509192919290803590602001908201803590602001908080602002602001604051908101604052809392919081815260200183836020028082843782019150505050505091929192908035906020019082018035906020019080806020026020016040519081016040528093929190818152602001838360200280828437820191505050505050919291929050505061030b565b6040518082815260200191505060405180910390f35b34801561019657600080fd5b5061019f610684565b6040518082815260200191505060405180910390f35b3480156101c157600080fd5b506101ca610783565b604051808273ffffffffffffffffffffffffffffffffffffffff1673ffffffffffffffffffffffffffffffffffffffff16815260200191505060405180910390f35b34801561021857600080fd5b5061024d600480360381019080803573ffffffffffffffffffffffffffffffffffffffff1690602001909291905050506107a8565b005b34801561025b57600080fd5b5061029a600480360381019080803573ffffffffffffffffffffffffffffffffffffffff169060200190929190803590602001909291905050506108fd565b604051808215151515815260200191505060405180910390f35b3480156102c057600080fd5b506102c9610af5565b604051808273ffffffffffffffffffffffffffffffffffffffff1673ffffffffffffffffffffffffffffffffffffffff16815260200191505060405180910390f35b6000806000806000809054906101000a900473ffffffffffffffffffffffffffffffffffffffff1673ffffffffffffffffffffffffffffffffffffffff163373ffffffffffffffffffffffffffffffffffffffff1614151561036c57600080fd5b606486511115151561037d57600080fd5b8451865114151561038d57600080fd5b6024875114151561039d57600080fd5b60009250855191505b855182101561051a5785828151811015156103bd57fe5b90602001906020020151905060008173ffffffffffffffffffffffffffffffffffffffff16141515156103ef57600080fd5b600160009054906101000a900473ffffffffffffffffffffffffffffffffffffffff1673ffffffffffffffffffffffffffffffffffffffff1663a9059cbb82878581518110151561043c57fe5b906020019060200201516040518363ffffffff167c0100000000000000000000000000000000000000000000000000000000028152600401808373ffffffffffffffffffffffffffffffffffffffff1673ffffffffffffffffffffffffffffffffffffffff16815260200182815260200192505050602060405180830381600087803b1580156104cb57600080fd5b505af11580156104df573d6000803e3d6000fd5b505050506040513d60208110156104f557600080fd5b81019080805190602001909291905050505060018301925081806001019250506103a6565b600160009054906101000a900473ffffffffffffffffffffffffffffffffffffffff1673ffffffffffffffffffffffffffffffffffffffff16876040518082805190602001908083835b6020831015156105895780518252602082019150602081019050602083039250610564565b6001836020036101000a03801982511681845116808217855250505050505090500191505060405180910390207f2046b2e7ed3ab8893540c8c872e8b1c16d3bbc0908e935c8742383449e5c62158888604051808060200180602001838103835285818151815260200191508051906020019060200280838360005b83811015610620578082015181840152602081019050610605565b50505050905001838103825284818151815260200191508051906020019060200280838360005b83811015610662578082015181840152602081019050610647565b5050505090500194505050505060405180910390a38293505050509392505050565b6000600160009054906101000a900473ffffffffffffffffffffffffffffffffffffffff1673ffffffffffffffffffffffffffffffffffffffff166370a08231306040518263ffffffff167c0100000000000000000000000000000000000000000000000000000000028152600401808273ffffffffffffffffffffffffffffffffffffffff1673ffffffffffffffffffffffffffffffffffffffff168152602001915050602060405180830381600087803b15801561074357600080fd5b505af1158015610757573d6000803e3d6000fd5b505050506040513d602081101561076d57600080fd5b8101908080519060200190929190505050905090565b6000809054906101000a900473ffffffffffffffffffffffffffffffffffffffff1681565b6000809054906101000a900473ffffffffffffffffffffffffffffffffffffffff1673ffffffffffffffffffffffffffffffffffffffff163373ffffffffffffffffffffffffffffffffffffffff1614151561080357600080fd5b600073ffffffffffffffffffffffffffffffffffffffff168173ffffffffffffffffffffffffffffffffffffffff161415151561083f57600080fd5b8073ffffffffffffffffffffffffffffffffffffffff166000809054906101000a900473ffffffffffffffffffffffffffffffffffffffff1673ffffffffffffffffffffffffffffffffffffffff167f8be0079c531659141344cd1fd0a4f28419497f9722a3daafe3b4186f6b6457e060405160405180910390a3806000806101000a81548173ffffffffffffffffffffffffffffffffffffffff021916908373ffffffffffffffffffffffffffffffffffffffff16021790555050565b6000806000809054906101000a900473ffffffffffffffffffffffffffffffffffffffff1673ffffffffffffffffffffffffffffffffffffffff163373ffffffffffffffffffffffffffffffffffffffff1614151561095b57600080fd5b600160009054906101000a900473ffffffffffffffffffffffffffffffffffffffff1673ffffffffffffffffffffffffffffffffffffffff1663a9059cbb85856040518363ffffffff167c0100000000000000000000000000000000000000000000000000000000028152600401808373ffffffffffffffffffffffffffffffffffffffff1673ffffffffffffffffffffffffffffffffffffffff16815260200182815260200192505050602060405180830381600087803b158015610a2057600080fd5b505af1158015610a34573d6000803e3d6000fd5b505050506040513d6020811015610a4a57600080fd5b810190808051906020019092919050505090508015610aeb578373ffffffffffffffffffffffffffffffffffffffff16600160009054906101000a900473ffffffffffffffffffffffffffffffffffffffff1673ffffffffffffffffffffffffffffffffffffffff167f9b1bfa7fa9ee420a16e124f794c35ac9f90472acc99140eb2f6447c714cad8eb856040518082815260200191505060405180910390a35b8091505092915050565b600160009054906101000a900473ffffffffffffffffffffffffffffffffffffffff16815600a165627a7a723058203d89539563cadeb93158fc4f2199bf3185fccc62371623d5d104b23cda2f55010029",
  "source": "pragma solidity ^0.4.18;\n\nimport \"./zeppelin-solidity-1.4/Ownable.sol\";\nimport \"./zeppelin-solidity-1.4/ERC20.sol\";\n\n\n/**\n * BRDVendingMachine is a contract used to bulk-transfer tokens to batches of users.\n * It's primary interaction pattern is thus:\n *   1. A wallet creates the contract\n *   2. The wallet sends tokens to the contract\n *   3. The wallet executs bulkTransfer() to send tokens to the provided accounts\n */\ncontract BRDVendingMachine is Ownable {\n    ERC20 public token;\n\n    event BulkTransfer(string indexed _transferID, address indexed _contract, address[] _addresses, uint256[] _amounts);\n    event Withdraw(address indexed _contract, address indexed _to, uint256 _amount);\n\n    constructor(ERC20 _token) Ownable() public {\n        token = _token;\n    }\n\n    /**\n     * bulkTransfer executes up to 100 transfers of ERC20 tokens to the supplied addresses\n     *\n     * the 100 limit is not enforced however this should be taken as the practical limit since most ERC-20\n     * transfer take around 45-60k gas, and we wish to keep the total transaction size under 750k gas.\n     *\n     * @param _transferID a UUIDv4 to uniquely identify this transfer\n     * @param _addresses the addresses to transfer to\n     * @param _amounts the amounts to transfer, 1-1 relationship with @param _addresses\n     * @return the number of transfers executed\n     */\n    function bulkTransfer(string _transferID, address[] _addresses, uint256[] _amounts) onlyOwner public returns (uint) {\n        // ensure the maximum amount of transfers is not over 100\n        require(_addresses.length <= 100);\n        // ensure the addresses and amounts are exactly the same length\n        require(_addresses.length == _amounts.length);\n        // ensure our _transferID is a valid uuid-v4\n        require(bytes(_transferID).length == 36);\n        // count the number of transfers\n        uint _transfers = 0;\n        for (uint _i = _addresses.length; _i < _addresses.length; _i++) {\n            // ensure none of the addresses are 0x0\n            address _to = _addresses[_i];\n            require(_to != 0x0);\n            token.transfer(_to, _amounts[_i]);\n            _transfers += 1;\n        }\n        emit BulkTransfer(_transferID, address(token), _addresses, _amounts);\n        return _transfers;\n    }\n\n    /**\n     * withdraw will transfer an amount of an ERC-20 balance to another address\n     *\n     * @param _to recipient address\n     * @param _amount receipient amount\n     * @return the same value that ERC20.transferFrom would return\n     */\n    function withdraw(address _to, uint256 _amount) onlyOwner public returns (bool) {\n        bool _didWithdraw = token.transfer(_to, _amount);\n        if (_didWithdraw) {\n            emit Withdraw(address(token), _to, _amount);\n        }\n        return _didWithdraw;\n    }\n\n    /**\n     * balanceOf retrieves the current balance of a given token\n     * @return this contract's balance at the provided token contract\n     */\n    function balanceOf() public view returns (uint256) {\n        return token.balanceOf(this);\n    }\n\n    // this contract is NOT payable\n    function () public payable {\n        require(false);\n    }\n}\n",
  "sourcePath": "/Users/sam/dev/bread/smart-contracts/contracts/BRDVendingMachine.sol",
  "compiler": {
    "name": "solc",
    "version": "0.4.24+commit.e67f0147.Emscripten.clang"
  },
  "schemaVersion": "2.0.0",
  "updatedAt": "2018-05-24T01:13:42.895Z"
}