{
  "contractName": "Forwarder",
  "abi": [
    {
      "constant": true,
      "inputs": [],
      "name": "parentAddress",
      "outputs": [
        {
          "name": "",
          "type": "address"
        }
      ],
      "payable": false,
      "stateMutability": "view",
      "type": "function"
    },
    {
      "constant": false,
      "inputs": [
        {
          "name": "tokenContractAddress",
          "type": "address"
        }
      ],
      "name": "flushTokens",
      "outputs": [],
      "payable": false,
      "stateMutability": "nonpayable",
      "type": "function"
    },
    {
      "constant": false,
      "inputs": [],
      "name": "flush",
      "outputs": [],
      "payable": false,
      "stateMutability": "nonpayable",
      "type": "function"
    },
    {
      "inputs": [],
      "payable": false,
      "stateMutability": "nonpayable",
      "type": "constructor"
    },
    {
      "payable": true,
      "stateMutability": "payable",
      "type": "fallback"
    },
    {
      "anonymous": false,
      "inputs": [
        {
          "indexed": false,
          "name": "from",
          "type": "address"
        },
        {
          "indexed": false,
          "name": "value",
          "type": "uint256"
        },
        {
          "indexed": false,
          "name": "data",
          "type": "bytes"
        }
      ],
      "name": "ForwarderDeposited",
      "type": "event"
    },
    {
      "anonymous": false,
      "inputs": [
        {
          "indexed": false,
          "name": "tokenContractAddress",
          "type": "address"
        },
        {
          "indexed": false,
          "name": "value",
          "type": "uint256"
        }
      ],
      "name": "TokensFlushed",
      "type": "event"
    }
  ],
  "bytecode": "0x6060604052341561000f57600080fd5b336000806101000a81548173ffffffffffffffffffffffffffffffffffffffff021916908373ffffffffffffffffffffffffffffffffffffffff1602179055506105568061005e6000396000f300606060405260043610610056576000357c0100000000000000000000000000000000000000000000000000000000900463ffffffff168062821de3146101555780633ef13367146101aa5780636b9f96ea146101e3575b6000809054906101000a900473ffffffffffffffffffffffffffffffffffffffff1673ffffffffffffffffffffffffffffffffffffffff16346000366040518083838082843782019150509250505060006040518083038185876187965a03f19250505015156100c557600080fd5b7f69b31548dea9b3b707b4dff357d326e3e9348b24e7a6080a218a6edeeec48f9b3334600036604051808573ffffffffffffffffffffffffffffffffffffffff1673ffffffffffffffffffffffffffffffffffffffff16815260200184815260200180602001828103825284848281815260200192508082843782019150509550505050505060405180910390a1005b341561016057600080fd5b6101686101f8565b604051808273ffffffffffffffffffffffffffffffffffffffff1673ffffffffffffffffffffffffffffffffffffffff16815260200191505060405180910390f35b34156101b557600080fd5b6101e1600480803573ffffffffffffffffffffffffffffffffffffffff1690602001909190505061021d565b005b34156101ee57600080fd5b6101f66104b5565b005b6000809054906101000a900473ffffffffffffffffffffffffffffffffffffffff1681565b60008060008060009054906101000a900473ffffffffffffffffffffffffffffffffffffffff1673ffffffffffffffffffffffffffffffffffffffff163373ffffffffffffffffffffffffffffffffffffffff1614151561027d57600080fd5b8392503091508273ffffffffffffffffffffffffffffffffffffffff166370a08231836000604051602001526040518263ffffffff167c0100000000000000000000000000000000000000000000000000000000028152600401808273ffffffffffffffffffffffffffffffffffffffff1673ffffffffffffffffffffffffffffffffffffffff168152602001915050602060405180830381600087803b151561032657600080fd5b6102c65a03f1151561033757600080fd5b5050506040518051905090506000811415610351576104af565b8273ffffffffffffffffffffffffffffffffffffffff1663a9059cbb6000809054906101000a900473ffffffffffffffffffffffffffffffffffffffff16836000604051602001526040518363ffffffff167c0100000000000000000000000000000000000000000000000000000000028152600401808373ffffffffffffffffffffffffffffffffffffffff1673ffffffffffffffffffffffffffffffffffffffff16815260200182815260200192505050602060405180830381600087803b151561041d57600080fd5b6102c65a03f1151561042e57600080fd5b50505060405180519050151561044357600080fd5b7f9401e4e79c19cbe2bd774cb70a94ba660e6718be1bac1298ab3b07f454a608218482604051808373ffffffffffffffffffffffffffffffffffffffff1673ffffffffffffffffffffffffffffffffffffffff1681526020018281526020019250505060405180910390a15b50505050565b6000809054906101000a900473ffffffffffffffffffffffffffffffffffffffff1673ffffffffffffffffffffffffffffffffffffffff163073ffffffffffffffffffffffffffffffffffffffff163160405160006040518083038185876187965a03f192505050151561052857600080fd5b5600a165627a7a723058203831dd6d0d4d052358121bd37f489b358d76e72d923efb87f9bc9e913e58921d0029",
  "source": "pragma solidity ^0.4.14;\n\n/**\n * Contract that exposes the needed erc20 token functions\n */\n\ncontract ERC20Interface {\n  // Send _value amount of tokens to address _to\n  function transfer(address _to, uint256 _value) returns (bool success);\n  // Get the account balance of another account with address _owner\n  function balanceOf(address _owner) constant returns (uint256 balance);\n}\n\n/**\n * Contract that will forward any incoming Ether to its creator\n */\ncontract Forwarder {\n  // Address to which any funds sent to this contract will be forwarded\n  address public parentAddress;\n  event ForwarderDeposited(address from, uint value, bytes data);\n\n  event TokensFlushed(\n    address tokenContractAddress, // The contract address of the token\n    uint value // Amount of token sent\n  );\n\n  /**\n   * Create the contract, and set the destination address to that of the creator\n   */\n  function Forwarder() {\n    parentAddress = msg.sender;\n  }\n\n  /**\n   * Modifier that will execute internal code block only if the sender is a parent of the forwarder contract\n   */\n  modifier onlyParent {\n    if (msg.sender != parentAddress) {\n      throw;\n    }\n    _;\n  }\n\n  /**\n   * Default function; Gets called when Ether is deposited, and forwards it to the destination address\n   */\n  function() payable {\n    if (!parentAddress.call.value(msg.value)(msg.data))\n      throw;\n    // Fire off the deposited event if we can forward it  \n    ForwarderDeposited(msg.sender, msg.value, msg.data);\n  }\n\n  /**\n   * Execute a token transfer of the full balance from the forwarder token to the main wallet contract\n   * @param tokenContractAddress the address of the erc20 token contract\n   */\n  function flushTokens(address tokenContractAddress) onlyParent {\n    ERC20Interface instance = ERC20Interface(tokenContractAddress);\n    var forwarderAddress = address(this);\n    var forwarderBalance = instance.balanceOf(forwarderAddress);\n    if (forwarderBalance == 0) {\n      return;\n    }\n    if (!instance.transfer(parentAddress, forwarderBalance)) {\n      throw;\n    }\n    TokensFlushed(tokenContractAddress, forwarderBalance);\n  }\n\n  /**\n   * It is possible that funds were sent to this address before the contract was deployed.\n   * We can flush those funds to the destination address.\n   */\n  function flush() {\n    if (!parentAddress.call.value(this.balance)())\n      throw;\n  }\n}\n\n/**\n * Basic multi-signer wallet designed for use in a co-signing environment where 2 signatures are required to move funds.\n * Typically used in a 2-of-3 signing configuration. Uses ecrecover to allow for 2 signatures in a single transaction.\n */\ncontract WalletSimple {\n  // Events\n  event Deposited(address from, uint value, bytes data);\n  event SafeModeActivated(address msgSender);\n  event Transacted(\n    address msgSender, // Address of the sender of the message initiating the transaction\n    address otherSigner, // Address of the signer (second signature) used to initiate the transaction\n    bytes32 operation, // Operation hash (sha3 of toAddress, value, data, expireTime, sequenceId)\n    address toAddress, // The address the transaction was sent to\n    uint value, // Amount of Wei sent to the address\n    bytes data // Data sent when invoking the transaction\n  );\n  event TokenTransacted(\n    address msgSender, // Address of the sender of the message initiating the transaction\n    address otherSigner, // Address of the signer (second signature) used to initiate the transaction\n    bytes32 operation, // Operation hash (sha3 of toAddress, value, tokenContractAddress, expireTime, sequenceId)\n    address toAddress, // The address the transaction was sent to\n    uint value, // Amount of token sent\n    address tokenContractAddress // The contract address of the token\n  );\n\n  // Public fields\n  address[] public signers; // The addresses that can co-sign transactions on the wallet\n  bool public safeMode = false; // When active, wallet may only send to signer addresses\n\n  // Internal fields\n  uint constant SEQUENCE_ID_WINDOW_SIZE = 10;\n  uint[10] recentSequenceIds;\n\n  /**\n   * Modifier that will execute internal code block only if the sender is an authorized signer on this wallet\n   */\n  modifier onlysigner {\n    if (!isSigner(msg.sender)) {\n      throw;\n    }\n    _;\n  }\n\n  /**\n   * Set up a simple multi-sig wallet by specifying the signers allowed to be used on this wallet.\n   * 2 signers will be required to send a transaction from this wallet.\n   * Note: The sender is NOT automatically added to the list of signers.\n   * Signers CANNOT be changed once they are set\n   *\n   * @param allowedSigners An array of signers on the wallet\n   */\n  function WalletSimple(address[] allowedSigners) {\n    if (allowedSigners.length != 3) {\n      // Invalid number of signers\n      throw;\n    }\n    signers = allowedSigners;\n  }\n\n  /**\n   * Gets called when a transaction is received without calling a method\n   */\n  function() payable {\n    if (msg.value > 0) {\n      // Fire deposited event if we are receiving funds\n      Deposited(msg.sender, msg.value, msg.data);\n    }\n  }\n\n  /**\n   * Create a new contract (and also address) that forwards funds to this contract\n   * returns address of newly created forwarder address\n   */\n  function createForwarder() onlysigner returns (address) {\n    return new Forwarder();\n  }\n\n  /**\n   * Execute a multi-signature transaction from this wallet using 2 signers: one from msg.sender and the other from ecrecover.\n   * The signature is a signed form (using eth.sign) of tightly packed toAddress, value, data, expireTime and sequenceId\n   * Sequence IDs are numbers starting from 1. They are used to prevent replay attacks and may not be repeated.\n   *\n   * @param toAddress the destination address to send an outgoing transaction\n   * @param value the amount in Wei to be sent\n   * @param data the data to send to the toAddress when invoking the transaction\n   * @param expireTime the number of seconds since 1970 for which this transaction is valid\n   * @param sequenceId the unique sequence id obtainable from getNextSequenceId\n   * @param signature the result of eth.sign on the operationHash sha3(toAddress, value, data, expireTime, sequenceId)\n   */\n  function sendMultiSig(address toAddress, uint value, bytes data, uint expireTime, uint sequenceId, bytes signature) onlysigner {\n    // Verify the other signer\n    var operationHash = sha3(\"ETHER\", toAddress, value, data, expireTime, sequenceId);\n    \n    var otherSigner = verifyMultiSig(toAddress, operationHash, signature, expireTime, sequenceId);\n\n    // Success, send the transaction\n    if (!(toAddress.call.value(value)(data))) {\n      // Failed executing transaction\n      throw;\n    }\n    Transacted(msg.sender, otherSigner, operationHash, toAddress, value, data);\n  }\n  \n  /**\n   * Execute a multi-signature token transfer from this wallet using 2 signers: one from msg.sender and the other from ecrecover.\n   * The signature is a signed form (using eth.sign) of tightly packed toAddress, value, tokenContractAddress, expireTime and sequenceId\n   * Sequence IDs are numbers starting from 1. They are used to prevent replay attacks and may not be repeated.\n   *\n   * @param toAddress the destination address to send an outgoing transaction\n   * @param value the amount in tokens to be sent\n   * @param tokenContractAddress the address of the erc20 token contract\n   * @param expireTime the number of seconds since 1970 for which this transaction is valid\n   * @param sequenceId the unique sequence id obtainable from getNextSequenceId\n   * @param signature the result of eth.sign on the operationHash sha3(toAddress, value, tokenContractAddress, expireTime, sequenceId)\n   */\n  function sendMultiSigToken(address toAddress, uint value, address tokenContractAddress, uint expireTime, uint sequenceId, bytes signature) onlysigner {\n    // Verify the other signer\n    var operationHash = sha3(\"ERC20\", toAddress, value, tokenContractAddress, expireTime, sequenceId);\n    \n    var otherSigner = verifyMultiSig(toAddress, operationHash, signature, expireTime, sequenceId);\n    \n    ERC20Interface instance = ERC20Interface(tokenContractAddress);\n    if (!instance.transfer(toAddress, value)) {\n        throw;\n    }\n    TokenTransacted(msg.sender, otherSigner, operationHash, toAddress, value, tokenContractAddress);\n  }\n\n  /**\n   * Execute a token flush from one of the forwarder addresses. This transfer needs only a single signature and can be done by any signer\n   *\n   * @param forwarderAddress the address of the forwarder address to flush the tokens from\n   * @param tokenContractAddress the address of the erc20 token contract\n   */\n  function flushForwarderTokens(address forwarderAddress, address tokenContractAddress) onlysigner {    \n    Forwarder forwarder = Forwarder(forwarderAddress);\n    forwarder.flushTokens(tokenContractAddress);\n  }  \n  \n  /**\n   * Do common multisig verification for both eth sends and erc20token transfers\n   *\n   * @param toAddress the destination address to send an outgoing transaction\n   * @param operationHash the sha3 of the toAddress, value, data/tokenContractAddress and expireTime\n   * @param signature the tightly packed signature of r, s, and v as an array of 65 bytes (returned by eth.sign)\n   * @param expireTime the number of seconds since 1970 for which this transaction is valid\n   * @param sequenceId the unique sequence id obtainable from getNextSequenceId\n   * returns address of the address to send tokens or eth to\n   */\n  function verifyMultiSig(address toAddress, bytes32 operationHash, bytes signature, uint expireTime, uint sequenceId) private returns (address) {\n\n    var otherSigner = recoverAddressFromSignature(operationHash, signature);\n\n    // Verify if we are in safe mode. In safe mode, the wallet can only send to signers\n    if (safeMode && !isSigner(toAddress)) {\n      // We are in safe mode and the toAddress is not a signer. Disallow!\n      throw;\n    }\n    // Verify that the transaction has not expired\n    if (expireTime < block.timestamp) {\n      // Transaction expired\n      throw;\n    }\n\n    // Try to insert the sequence ID. Will throw if the sequence id was invalid\n    tryInsertSequenceId(sequenceId);\n\n    if (!isSigner(otherSigner)) {\n      // Other signer not on this wallet or operation does not match arguments\n      throw;\n    }\n    if (otherSigner == msg.sender) {\n      // Cannot approve own transaction\n      throw;\n    }\n\n    return otherSigner;\n  }\n\n  /**\n   * Irrevocably puts contract into safe mode. When in this mode, transactions may only be sent to signing addresses.\n   */\n  function activateSafeMode() onlysigner {\n    safeMode = true;\n    SafeModeActivated(msg.sender);\n  }\n\n  /**\n   * Determine if an address is a signer on this wallet\n   * @param signer address to check\n   * returns boolean indicating whether address is signer or not\n   */\n  function isSigner(address signer) returns (bool) {\n    // Iterate through all signers on the wallet and\n    for (uint i = 0; i < signers.length; i++) {\n      if (signers[i] == signer) {\n        return true;\n      }\n    }\n    return false;\n  }\n\n  /**\n   * Gets the second signer's address using ecrecover\n   * @param operationHash the sha3 of the toAddress, value, data/tokenContractAddress and expireTime\n   * @param signature the tightly packed signature of r, s, and v as an array of 65 bytes (returned by eth.sign)\n   * returns address recovered from the signature\n   */\n  function recoverAddressFromSignature(bytes32 operationHash, bytes signature) private returns (address) {\n    if (signature.length != 65) {\n      throw;\n    }\n    // We need to unpack the signature, which is given as an array of 65 bytes (from eth.sign)\n    bytes32 r;\n    bytes32 s;\n    uint8 v;\n    assembly {\n      r := mload(add(signature, 32))\n      s := mload(add(signature, 64))\n      v := and(mload(add(signature, 65)), 255)\n    }\n    if (v < 27) {\n      v += 27; // Ethereum versions are 27 or 28 as opposed to 0 or 1 which is submitted by some signing libs\n    }\n    return ecrecover(operationHash, v, r, s);\n  }\n\n  /**\n   * Verify that the sequence id has not been used before and inserts it. Throws if the sequence ID was not accepted.\n   * We collect a window of up to 10 recent sequence ids, and allow any sequence id that is not in the window and\n   * greater than the minimum element in the window.\n   * @param sequenceId to insert into array of stored ids\n   */\n  function tryInsertSequenceId(uint sequenceId) onlysigner private {\n    // Keep a pointer to the lowest value element in the window\n    uint lowestValueIndex = 0;\n    for (uint i = 0; i < SEQUENCE_ID_WINDOW_SIZE; i++) {\n      if (recentSequenceIds[i] == sequenceId) {\n        // This sequence ID has been used before. Disallow!\n        throw;\n      }\n      if (recentSequenceIds[i] < recentSequenceIds[lowestValueIndex]) {\n        lowestValueIndex = i;\n      }\n    }\n    if (sequenceId < recentSequenceIds[lowestValueIndex]) {\n      // The sequence ID being used is lower than the lowest value in the window\n      // so we cannot accept it as it may have been used before\n      throw;\n    }\n    if (sequenceId > (recentSequenceIds[lowestValueIndex] + 10000)) {\n      // Block sequence IDs which are much higher than the lowest value\n      // This prevents people blocking the contract by using very large sequence IDs quickly\n      throw;\n    }\n    recentSequenceIds[lowestValueIndex] = sequenceId;\n  }\n\n  /**\n   * Gets the next available sequence ID for signing when using executeAndConfirm\n   * returns the sequenceId one higher than the highest currently stored\n   */\n  function getNextSequenceId() returns (uint) {\n    uint highestSequenceId = 0;\n    for (uint i = 0; i < SEQUENCE_ID_WINDOW_SIZE; i++) {\n      if (recentSequenceIds[i] > highestSequenceId) {\n        highestSequenceId = recentSequenceIds[i];\n      }\n    }\n    return highestSequenceId + 1;\n  }\n}",
  "sourcePath": "/Users/sam/dev/bread/smart-contracts/contracts/bitgo-multisig/WalletSimple.sol",
  "compiler": {
    "name": "solc",
    "version": "0.4.18+commit.9cf6e910.Emscripten.clang"
  },
  "schemaVersion": "1.0.1",
  "updatedAt": "2017-12-18T05:15:19.154Z"
}